:100000000C9469010C9491010C9491010C94910150
:100010000C9491010C9491010C9491010C94910118
:100020000C9491010C9491010C94C10A0C948F09C9
:100030000C9491010C9491010C9491010C949101F8
:100040000C9491010C9491010C9491010C949101E8
:100050000C9491010C9491010C9491010C94B704AF
:100060000C9491010C9491010C9491010C949101C8
:100070000C9491010C9491010C9491010C949101B8
:100080000C9491010C9491010C9491010C949101A8
:100090000C9491010C9491010C9491010C94910198
:1000A0000C9491010C9491010C94910100000002B8
:1000B00000080E0000030401000B00000408020108
:1000C00010408040102040804080080204018040A1
:1000D0002010020110801020404004040404040396
:1000E00004050202020204030202020206060606D8
:1000F0000606040402020204000000002300260099
:1001000029002C002F0000000000250028002B00F3
:100110002E00310000000000240027002A002D00DE
:100120003000080B00020202010009040000010275
:10013000020000052400100105240101010424022D
:10014000060524060001070581031000400904018B
:1001500000020A00000007050202400000070583B4
:100160000240000000C18081C112010002020000B3
:10017000404123368000010102000112010002000B
:1001800000004041233680000101020001180341B4
:100190000072006400750069006E006F0020004C62
:1001A000004C0043002203410072006400750069A6
:1001B000006E006F0020004C0065006F006E006153
:1001C00000720064006F00040309040000000000D6
:1001D0000000002A2B2800000000000000000000A2
:1001E00000000000000000000000002C9EB4A0A150
:1001F000A2A434A6A7A5AE362D3738271E1F20216E
:100200002223242526B333B62EB7B89F848586874C
:1002100088898A8B8C8D8E8F9091929394959697E6
:1002200098999A9B9C9D2F3130A3AD350405060704
:1002300008090A0B0C0D0E0F1011121314151617C6
:1002400018191A1B1C1DAFB1B0B50009040200013A
:100250000300000009210101000122650007058457
:100260000340000105010902A1010901A100850166
:10027000050919012903150025019503750181025E
:10028000950175058103050109300931093815818A
:10029000257F750895038106C0C005010906A101E7
:1002A0008502050719E029E7150025017501950864
:1002B000810295017508810395067508150025656D
:1002C0000507190029658100C0004203AB07760CC1
:1002D0004A0311241FBECFEFDAE0DEBFCDBF11E02D
:1002E000A0E0B1E0EEEDFBE102C005900D92A83375
:1002F000B107D9F711E0A8E3B1E001C01D92A93C14
:10030000B107E1F712E0C0EDD2E004C02297FE0190
:100310000E94850CCA3CD107C9F70E94C2070C9401
:10032000E20D0C940000CF93DF93C0E0D0E011C049
:100330004FEF60E080E00E94A6049B01AC01BE018B
:1003400081E491E00E94750481E491E00E94B4038D
:10035000219681E491E00E94B304C817D90740F3C5
:10036000DF91CF91089560E875E28DE591E00E94FC
:10037000AA0781E491E00E94A70381E491E00E9432
:10038000B4030C949301CF93DF93BC01FC01E652BC
:10039000FF4F449150E0440F551FFA01EA5FFE4FB2
:1003A000859194919C01FA01EC5EFE4F85919491A8
:1003B000C82FD92FFB01E454FF4F649148505F4F81
:1003C000FA0185919491DC01F9018081462F4095D5
:1003D000842380838881862B8883F8948881842372
:1003E00088838081862B80838C91862309F033C09B
:1003F0008C91862309F031C08C91862381F58C91F4
:10040000862379F58C91862371F58C91862369F585
:100410008C91862361F58C91862359F58C918623E6
:1004200051F58C91862349F58C91862341F58C9169
:10043000862339F58C91862331F58C91862329F515
:100440008C91862321F58C91862319F58C91862336
:1004500011F180E121C080E01FC081E01DC082E079
:100460001BC083E019C084E017C085E015C086E09A
:1004700013C087E011C088E00FC089E00DC08AE09A
:100480000BC08BE009C08CE007C08DE005C08EE09A
:1004900003C08FE001C081E17894F9019081942339
:1004A00090839881962B9883DF91CF910895FF9246
:1004B0000F931F93CF93DF938BE090E00E94C301D3
:1004C000F82E8CE090E00E94C301082F10E08DE030
:1004D00090E00E94C301C82FD0E08F2D90E04091A2
:1004E00006015091070120913F01309140014817CA
:1004F0005907B4F42A3F310534F42F5F3F4F30934E
:10050000400120933F0180913A018823A9F062E1E4
:1005100071E08DE591E00E94B20610923A010CC0A4
:10052000121613064CF481E080933A0121503109F0
:100530003093400120933F01809106019091070183
:1005400020913D0130913E018017910784F42A3FAC
:1005500031056CF4809139018823A9F064E171E0E0
:100560008DE591E00E94B206109239010CC012167E
:1005700013064CF481E08093390121503109309306
:100580003E0120933D018091060190910701209149
:100590003B0130913C018C179D0784F42A3F3105C3
:1005A0006CF4809138018823A9F066E171E08DE553
:1005B00091E00E94B206109238010CC01216130688
:1005C0004CF481E0809338012150310930933C0193
:1005D00020933B018DE591E00E94B406892BD1F078
:1005E0008DE591E00E94DA068234910569F083344A
:1005F000910599F08134910569F48FEF90E0909323
:10060000400180933F0106C08FEF90E090933E0140
:1006100080933D01C2E0D0E007C08FEF90E090935F
:100620003C0180933B01F6CF40913B0160913D013D
:1006300080913F010E94A6049B01AC01BE0181E4B0
:1006400091E00E94750440913B0160913D018091D1
:100650003F010E94A6049B01AC01BE016A5F7F4F6F
:1006600081E491E00E94750481E491E00E94B4036A
:100670002196C530D105C1F6DF91CF911F910F9121
:10068000FF90089523E046E06FE070E081E491E0A0
:100690000C944E0381E491E00C949803FF920F9325
:1006A0001F93CF93DF93EC01F22E798368838B0144
:1006B000000F111F060F171F0A831B834C832B8704
:1006C00050E0FA01E652FF4FE491F0E0EE0FFF1F19
:1006D000EA5FFE4F85919491888B998BFA01E454DF
:1006E000FF4F44914A8BC8010E94890C9F838E83DF
:1006F000009729F0A80160E070E00E94C00DF0FEB4
:1007000004C081E0888719860BC0F2FE06C081E034
:10071000888782E089871A8605C0188681E08987E4
:1007200082E08A87DF91CF911F910F91FF9008950A
:10073000CF93DF93EC018E819F81009711F00E948F
:10074000240D60E08C81DF91CF910C940B06CF9348
:10075000DF93EC0161E08C810E940B0660E08C81EC
:10076000DF91CF910C944306CF92DF92EF92FF92EC
:100770000F931F93CF93DF93CDB7DEB729970FB6B3
:10078000F894DEBF0FBECDBF8C01DC0116968D91B3
:100790009C911797892B09F499C00E940105F801D3
:1007A000C484D584E684F7846C197D098E099F0979
:1007B000623371058105910580F3F894D801828137
:1007C00093819A838983E680F780F70181917F0185
:1007D00089871B969C911B9750960D90BC91A02DDC
:1007E000F801828991FF2EC09C91982B98879C914B
:1007F000809589238F838F818E8388E08D835885B0
:100800006F8149853D812E8189819A81F7015C93B1
:1008100047FD252F3A952C93262F39F0441F00C011
:1008200000006C93000000C0F2CF38E041916C935F
:100830000000019761F7F801B18BA08B49873D83D8
:100840002E8338C09C91982B98879C918095892302
:100850008F838F818C8388E08B8358856F81498556
:100860003B812C8189819A81F7015C9347FD252F7B
:1008700000C000C02C9300C000C000C000C000C079
:100880006C930000262F3A9541F0441F000000C0F1
:1008900000C000C000C000C0E8CF38E0419100C0F7
:1008A0006C9300C0019709F7F801B18BA08B4987C1
:1008B0003B832C839A83898378940E940105D80115
:1008C0001C966D937D938D939C931F9729960FB6DD
:1008D000F894DEBF0FBECDBFDF91CF911F910F9176
:1008E000FF90EF90DF90CF900895CF93FC01A0810F
:1008F000B1816A177B0740F5C32FA581AA2361F058
:100900004A9FA0011124452F3A9FC0011124C92FED
:100910002A9F90011124232FDB01AA0FBB1FA60FD2
:10092000B71F868197818A0F9B1F3085DC01A30F3B
:10093000B11D4C933185DC01A30FB11DCC933285E1
:10094000FC01E30FF11D2083CF9108950F931F93B6
:10095000042F10E020E030E0162B282BB801C9014D
:100960001F910F910895FC018081918108951F923C
:100970000F920FB60F9211242F933F938F939F9353
:10098000AF93BF938091540190915501A09156016E
:10099000B091570130915C01232F2D5F2D3720F44A
:1009A0000196A11DB11D05C0232F2A570296A11D36
:1009B000B11D20935C018093540190935501A09345
:1009C0005601B09357018091580190915901A0911F
:1009D0005A01B0915B010196A11DB11D8093580190
:1009E00090935901A0935A01B0935B01BF91AF91CD
:1009F0009F918F913F912F910F900FBE0F901F905D
:100A000018950F931F939FB7F89400915801109178
:100A1000590120915A0130915B0186B5A89B06C00F
:100A20008F3F21F00F5F1F4F2F4F3F4F9FBF322F40
:100A3000212F102F0027080F111D211D311D42E00D
:100A4000000F111F221F331F4A95D1F7B801C901AA
:100A50001F910F910895CF92DF92EF92FF92CF9363
:100A6000DF936B017C010E940105EB010EC00E9427
:100A700001056C1B7D0B683E734038F081E0C81A9D
:100A8000D108E108F108C851DC4FC114D104E104D8
:100A9000F10469F7DF91CF91FF90EF90DF90CF9055
:100AA0000895789484B5826084BD84B5816084BDE6
:100AB00085B5826085BD85B5816085BDEEE6F0E0D7
:100AC000808181608083E1E8F0E010828081826033
:100AD0008083808181608083E0E8F0E080818160B4
:100AE0008083E1EBF0E0808184608083E0EBF0E0E4
:100AF000808181608083E1E9F0E080818260808391
:100B0000808181608083E0E9F0E080818160808382
:100B1000E1ECF0E08081846080838081826080836A
:100B2000808181608083E3ECF0E08081816080835C
:100B3000E0ECF0E0808182608083E2ECF0E0808194
:100B400081608083EAE7F0E0808184608083808137
:100B500082608083808181608083808180688083DF
:100B600008958730A1F178F48330E1F030F48130DA
:100B700019F1823009F04EC022C08430B9F08630BD
:100B800009F048C020C08A3081F130F4883029F162
:100B9000893009F03FC025C08C3089F160F18E307A
:100BA000C9F533C0809180008F7703C080918000A9
:100BB0008F7D80938000089584B58F7702C084B5BF
:100BC0008F7D84BD08958091B0008F7703C08091A0
:100BD000B0008F7D8093B0000895809190008F7752
:100BE00007C0809190008F7D03C080919000877F27
:100BF0008093900008958091C0008F7703C080910A
:100C0000C0008F7D8093C00008958091C200877FCF
:100C10008093C2000895CF93DF9390E0FC01E454E9
:100C2000FF4F4491FC01E652FF4F8491882341F12C
:100C300090E0880F991FFC01EC5EFE4F25913491E6
:100C4000D9018A5F9E4FFC0185919491C82FD92FBD
:100C50009FB7F8948C91611106C0409584238C93C2
:100C60008881842308C0623041F4242F2095822398
:100C70008C938881842B888302C0842B8C939FBFA4
:100C8000DF91CF9108950F931F93CF93DF931F921E
:100C9000CDB7DEB7282F30E0F901E455FF4F84913E
:100CA000F901E454FF4F1491F901E652FF4F04910A
:100CB0000023D1F0882321F069830E94B105698166
:100CC000E02FF0E0EE0FFF1FEA5FFE4F8591949159
:100CD000DC019FB7F8948C91611103C010958123BA
:100CE00001C0812B8C939FBF0F90DF91CF911F91FB
:100CF0000F910895CF92DF92EF92FF920F931F937F
:100D0000CF93DF936C01EB017A01E60EF71E00E052
:100D100010E00BC06991D601ED91FC910190F0813A
:100D2000E02DC6010995080F191FCE15DF0591F7B3
:100D3000C801DF91CF911F910F91FF90EF90DF904D
:100D4000CF900895DB010D900020E9F7AD014150EF
:100D50005109461B570BDC01ED91FC910280F38198
:100D6000E02D09940C94A2062091AB013091AC01C6
:100D70008091AD019091AE01281B390B2F73332761
:100D8000C90108952091AB013091AC018091AD0172
:100D90009091AE012817390749F0E091AD01F0912B
:100DA000AE01E559FE4F208130E002C02FEF3FEF4A
:100DB000C90108952091AB013091AC018091AD0142
:100DC0009091AE0128173907B1F0E091AD01F09193
:100DD000AE01E559FE4F80812091AD013091AE0109
:100DE0002F5F3F4F2F7333273093AE012093AD0118
:100DF000282F30E002C02FEF3FEFC90108950F9375
:100E00001F93CF93DF931F92CDB7DEB78C01698319
:100E100080910F01882369F041E050E0BE016F5FCF
:100E20007F4F83E00E9473081816190614F49C0182
:100E300007C081E090E0F8019383828320E030E0F6
:100E4000C9010F90DF91CF911F910F91089583E019
:100E50000C94B70A82E00E9441082091AB013091C6
:100E6000AC012F5F3F4F2F7333274091AD0150915D
:100E7000AE012417350759F0E091AB01F091AC01B8
:100E8000E559FE4F80833093AC012093AB01089568
:100E9000FC0120812E5F208342E450E062E271E099
:100EA00080E80C940E09FC0181819081913A59F4FB
:100EB000813209F04BC047E050E068E071E080E02B
:100EC0000E940E0945C0913209F040C0803239F4C9
:100ED00067E070E088E091E00E94610939C08232E9
:100EE00009F034C0828180930F01809108019091B4
:100EF0000901A0910A01B0910B01803B9440A1052A
:100F0000B10531F580910F0180FD12C087E797E7A9
:100F100090930108809300082BE088E190E00FB6E1
:100F2000F894A895809360000FBE2093600010C0D5
:100F300088E10FB6F89480936000109260000FBEB5
:100F4000A895109201081092000802C080E0089550
:100F500081E0089508951092600110925F0188EE7B
:100F600093E0A0E0B0E08093610190936201A093D0
:100F70006301B09364018CE191E090935E018093F2
:100F80005D0108950E9451058FEA91E00E94210BB6
:100F90000E94B301C0E0D0E00E9457022097E1F325
:100FA0000E940000F9CF05C02091F100FC012193BF
:100FB000CF016150C8F7289884E68093B601089560
:100FC0002FB7FC012083F89467706093E9000895BF
:100FD000CF93DF931F92CDB7DEB7682FCE01019676
:100FE0000E94E0078091F20099819FBF0F90DF91EE
:100FF000CF910895FF920F931F93CF93DF9300D06B
:10100000CDB7DEB7F62E8A019091B5019923A9F0EC
:1010100057FF16C012C028988093B6019091F10036
:101020009193FE12F8CF4115510521F08091F20005
:101030008823D1F089818FBF1BC04FEF5FEF18C0AD
:10104000682FCE0101967A830E94E0078091F2001A
:1010500090E0A8017A81801791070CF4AC01EF2D84
:10106000F72FF40E84E6DDCF8BE68093E800E2CF25
:10107000CA010F900F90DF91CF911F910F91FF90B8
:101080000895CF93DF931F92CDB7DEB741E050E0D4
:10109000BE016F5F7F4F0E94FA07019719F4298103
:1010A00030E002C02FEF3FEFC9010F90DF91CF91E9
:1010B0000895CF93DF931F92CDB7DEB7682FCE018F
:1010C00001960E94E0078091E80085FF05C090919D
:1010D000F20080E4891B01C080E099819FBF0F90DE
:1010E000DF91CF9108956F927F928F929F92AF92EE
:1010F000BF92CF92DF92EF92FF920F931F93CF9305
:10110000DF931F92CDB7DEB7782EC42EB52E809117
:10111000B50181114CC02FEF3FEF64C0872D0E94B5
:101120005908682E811109C0DA94A9F361E070E0D2
:1011300080E090E00E942B0547C0282F30E0021786
:1011400013070CF4602E06191109672DCE010196C4
:101150000E94E007992041F002C01092F1006A94C9
:101160008FEF6812FACF17C0862D77FC02C0F70107
:101170000EC0970106C0F9012F5F3F4FE491E09345
:10118000F1008150C0F705C091919093F10081501A
:10119000D8F7E60CF11C8091E80085FF20C001150E
:1011A000110511F481101BC089818FBF0DC07B0117
:1011B000042F152F8AEFD82E90E2992E97202AE33C
:1011C000A22E30E4832E87200115110509F0A6CF49
:1011D0005D9884E68093B7012C2D3B2D03C0A0922F
:1011E000E800E2CFC9010F90DF91CF911F910F91DD
:1011F000FF90EF90DF90CF90BF90AF909F908F9037
:101200007F906F9008951092E9001092B4011092AF
:10121000B3019093B2018093B1010895FF920F93AF
:101220001F93CF93DF93C42FD52FDB0160E070E0D5
:10123000EEEFFE2E38C09D012F5F3F4F87FF04C0A9
:10124000FD01D901E49102C0EC91D9010091B301F3
:101250001091B4012091B1013091B201021713072E
:10126000B4F49091E8009570E1F39091E80092FD5C
:101270001FC0E093F1002091B3013091B4012F5FC2
:101280003F4F2F733327232B11F4F092E800209166
:10129000B3013091B4012F5F3F4F3093B4012093DD
:1012A000B3016F5F7F4F6C177D0729F69A0102C06B
:1012B0002FEF3FEFC901DF91CF911F910F91FF9069
:1012C00008951F93CF93DF931F92CDB7DEB7162FEC
:1012D0002091E80022FFFCCF612F79830E94D30781
:1012E0008BEF8093E800812F7981972F0F90DF910A
:1012F000CF911F910895CF93DF931F92CDB7DEB7A3
:101300001982CE0101960E944807CE0101960E94E3
:101310005E0B898190E00F90DF91CF9108951F922D
:101320000F920FB60F921124EF92FF920F931F931B
:101330002F933F934F935F936F937F938F939F93DD
:10134000AF93BF93EF93FF93CF93DF93CDB7DEB708
:101350006297DEBFCDBF1092E9008091E80083FF65
:10136000E9C068E0CE010A960E94D30782EF80931D
:10137000E8009A8597FF05C08091E80080FFFCCFC8
:1013800003C08EEF8093E800892F807609F0B7C004
:101390008B85811105C01092F1001092F100C3C03D
:1013A000813009F4C0C0833009F4BDC0853049F4F0
:1013B0008091E80080FFFCCF8C8580688093E300FB
:1013C000B2C0863009F073C02D85E888F9882230D4
:1013D00071F580E090E02A8B0E9403090E947B094E
:1013E00099E08E010F5F1F4FF801392F11923A9546
:1013F000E9F799832A892A8391E09E8390E8988768
:101400009AEF99872091B3013091B401275F3F4F44
:101410003C832B838D83C7010E94030949E050E080
:10142000B80180E00E940E090E947B097CC0C701C0
:101430002A8B0E9403092A89223241F482E290E039
:101440000E94690B892B09F06EC071C0213071F4C4
:1014500088899989089719F481E08093B001809177
:10146000B001882389F069E671E016C0233009F0E5
:101470005EC08C85882359F0823061F0813009F09C
:1014800056C06DE871E008C06BE771E005C067EC1D
:1014900071E002C065EA71E06115710509F447C0A9
:1014A000FB01449150E080E80E940E093CC0873067
:1014B00009F43DC0883021F481E08093F10033C00D
:1014C000893089F5937099F5E5E6F1E081E021E056
:1014D00096E38093E9002093EB0034913093EC0085
:1014E0009093ED008F5F3196853099F78EE780936A
:1014F000EA001092EA008C858093B50114C08889B7
:1015000099890E9403098E85811105C0CE010A9632
:101510000E94530706C0823051F4CE010A960E9401
:10152000910B882321F08EEF8093E80003C081E2C5
:101530008093EB0062960FB6F894DEBF0FBECDBF6E
:10154000DF91CF91FF91EF91BF91AF919F918F91DB
:101550007F916F915F914F913F912F911F910F91CB
:10156000FF90EF900F900FBE0F901F9018958093F3
:10157000E9008091F200882319F08AE38093E80063
:1015800008951F920F920FB60F9211242F933F933D
:101590004F935F936F937F938F939F93AF93BF937B
:1015A000EF93FF938091E1001092E10083FF0FC061
:1015B0001092E90091E09093EB001092EC0092E31E
:1015C0009093ED001092B50198E09093F00082FFA7
:1015D00027C083E00E94B70A04C08DE591E00E9415
:1015E0002A0782E00E94E8078111F7CF8091B701B6
:1015F000882339F08091B70181508093B701882307
:1016000061F08091B601882359F08091B601815034
:101610008093B601882319F003C05D9AF2CF289A0F
:10162000FF91EF91BF91AF919F918F917F916F91BA
:101630005F914F913F912F910F900FBE0F901F9090
:1016400018951092B50181E08093D70080EA8093CD
:10165000D80082E189BD09B400FEFDCF61E070E0F1
:1016600080E090E00E942B0580E98093D8008CE018
:101670008093E2001092E000559A209A0895FF921C
:101680000F931F93CF93DF93EC01F62EE881F9813E
:101690000480F581E02D09958C01E881F9810680AF
:1016A000F781E02D6F2DCE01099598013327C901EF
:1016B000DF91CF911F910F91FF900895FC01208140
:1016C0002F5F208349E150E06BE472E080E80C94E6
:1016D0000E0945E650E064E672E080E80C940E09DD
:1016E000EF92FF920F931F93CF93DF931F92CDB78B
:1016F000DEB789838B017A0141E050E0BE016F5F64
:101700007F4F84E00E947308A701B80184E40E941F
:1017100073080F90DF91CF911F910F91FF90EF9081
:101720000895FC0191818081813A31F481E091300A
:1017300091F0933091F010C0813271F49B3021F41C
:1017400082818093110105C09A3031F482818093A7
:10175000100181E00895089580E0089548E050E088
:1017600082E00C94700BFC011682178210861186A1
:10177000128613861482BC016C5F7F4F0C94AE0BF3
:10178000E62F683810F0E85824C0F0E067FF12C078
:10179000E058F10921E030E001C0220FEA95EAF7B4
:1017A0002095DC0114963C911497322314963C93B7
:1017B000E0E00FC0E553FE4FE491EE2329F1E7FF8F
:1017C00008C0DC0114962C9114972D7F14962C934D
:1017D000EF7720E030E0EE2351F0DC01A20FB31FE1
:1017E00016964C9116974E1302C016961C922F5FB8
:1017F0003F4F2630310579F7BC016C5F7F4F0E9467
:10180000AE0B21E030E002C020E030E0C9010895D5
:10181000CF93DF93DC01E62F683810F0E85824C03E
:10182000F0E067FF11C0E058F10981E090E001C0ED
:10183000880FEA95EAF714969C911497982B1496C2
:101840009C931497E0E010C0E553FE4FE491E11142
:1018500001C040C0E7FF08C014968C9114978260C5
:1018600014968C931497EF7716968C9116978E1783
:1018700041F117968C9117978E1719F118968C9144
:1018800018978E17F1F019968C9119978E17C9F049
:101890001A968C911A978E17A1F01B968C911B9714
:1018A0008E1779F080E090E0ED01C80FD91F2E81EE
:1018B000211102C0EE8305C0019686309105A1F783
:1018C00009C0BD016C5F7F4FCD010E94AE0B21E0CE
:1018D00030E008C081E090E013969C938E931297BD
:1018E00020E030E0C901DF91CF9108951092C4014A
:1018F0001092BB011092BA018EE291E09093B9016F
:101900008093B8010895EE0FFF1F0590F491E02D2C
:1019100009940F931F93CF93DF938230910510F4B6
:1019200082E090E0E091C701F091C80120E030E052
:10193000C0E0D0E023C04081518148175907A8F08A
:101940004817590761F482819381209719F09B838E
:101950008A832EC09093C8018093C70129C02115A6
:10196000310529F04217530710F0A90102C0BE014A
:10197000DF0102811381EF019A01F8013097D9F656
:101980002115310509F1281B390B2430310590F45C
:1019900012968D919C9113976115710521F0FB01B1
:1019A0009383828304C09093C8018093C701FD0193
:1019B000329644C0FD01E20FF31F819391932250B0
:1019C00031092D933C933AC02091C5013091C60155
:1019D000232B41F420910201309103013093C60181
:1019E0002093C5012091000130910101211531059D
:1019F00041F42DB73EB74091040150910501241BDD
:101A0000350BE091C501F091C601E217F307A0F490
:101A10002E1B3F0B2817390778F0AC014E5F5F4F44
:101A20002417350748F04E0F5F1F5093C6014093AF
:101A3000C5018193919302C0E0E0F0E0CF01DF9116
:101A4000CF911F910F910895EF92FF920F931F93E3
:101A5000CF93DF93009709F48EC0DC0112971396A1
:101A60001C921E921297E090C701F090C801E114F9
:101A7000F10489F42D913C911197280F391F809121
:101A8000C5019091C6018217930789F5B093C601ED
:101A9000A093C50170C0E70120E030E001C0EA0179
:101AA000CA17DB0738F44A815B819E014115510555
:101AB000B1F722C0AC0142505109FA01D383C2836D
:101AC00000811181BC01600F711F6C177D0761F4EB
:101AD00068817981600F711F6E5F7F4F71836083B2
:101AE0006A817B81738362832115310529F4B09368
:101AF000C801A093C7013FC0F901B383A283E901E4
:101B000049915991C40FD51FAC17BD0771F4DC0181
:101B10009E918E91840F951F0296918380831296D9
:101B20008D919C91139793838283A0E0B0E002C0D3
:101B3000D7017C01F701828193810097C9F7C70122
:101B4000029620813181820F931F2091C50130912F
:101B5000C6012817390779F4109729F41092C801A3
:101B60001092C70104C013961C921E921297F09215
:101B7000C601E092C501CDB7DEB7E6E00C94D30D07
:101B8000DC0101C06D9341505040E0F708952A8870
:101B9000398848885F846E847D848C849B84AA8481
:101BA000B984C884DF80EE80FD800C811B81AA810E
:101BB000B981CE0FD11D0FB6F894DEBF0FBECDBFD9
:101BC000ED01089512E0C0EDD2E004C0FE010E94D4
:0E1BD000850C2296C23DD107C9F7F894FFCFCD
:101BDE000000C9012000060000E100000000000026
:101BEE00010141004200430000000000FF067A069A
:101BFE00B406DA06C20627072A07000000003F0BCC
:081C0E007A06080CC00BB30BB1
:00000001FF
