:100000000C9487080C94AF080C94AF080C94AF08BC
:100010000C94AF080C94AF080C94AF080C94AF0884
:100020000C94AF080C94AF080C94AF080C94AF0874
:100030000C94AF080C94AF080C94AF080C94AF0864
:100040000C9466170C94AF080C94B21A0C94EE1A28
:100050000C94AF080C94AF080C94AF080C94AF0844
:100060000C94AF080C94AF0805A84CCDB2D44EB98F
:100070003836A9020C50B9918688083CA6AAAA2A4B
:10008000BE000000803F050800FF0C4B0000000090
:10009000003E5B4F5B3E3E6B4F6B3E1C3E7C3E1C0E
:1000A000183C7E3C181C577D571C1C5E7F5E1C0054
:1000B000183C1800FFE7C3E7FF0018241800FFE70B
:1000C000DBE7FF30483A060E2629792926407F05CE
:1000D0000507407F05253F5A3CE73C5A7F3E1C1CE4
:1000E00008081C1C3E7F14227F22145F5F005F5FA4
:1000F00006097F017F006689956A60606060609490
:10010000A2FFA29408047E040810207E2010080894
:100110002A1C08081C2A08081E101010100C1E0C9F
:100120001E0C30383E3830060E3E0E060000000031
:100130000000005F00000007000700147F147F1418
:10014000242A7F2A1223130864623649562050005D
:1001500008070300001C2241000041221C002A1C49
:100160007F1C2A08083E0808008070300008080834
:100170000808000060600020100804023E51494554
:100180003E00427F400072494949462141494D3372
:100190001814127F1027454545393C4A49493141D9
:1001A000211109073649494936464949291E0000A7
:1001B00014000000403400000008142241141414FC
:1001C0001414004122140802015909063E415D59E8
:1001D0004E7C1211127C7F494949363E41414122F1
:1001E0007F4141413E7F494949417F090909013E1B
:1001F000414151737F0808087F00417F4100204042
:10020000413F017F081422417F404040407F021C53
:10021000027F7F0408107F3E4141413E7F0909096A
:10022000063E4151215E7F09192946264949493236
:1002300003017F01033F4040403F1F2040201F3FFC
:100240004038403F63140814630304780403615981
:10025000494D43007F4141410204081020004141C3
:10026000417F04020102044040404040000307086F
:100270000020545478407F2844443838444444286B
:10028000384444287F385454541800087E09021812
:10029000A4A49C787F0804047800447D400020409A
:1002A000403D007F1028440000417F40007C0478DE
:1002B00004787C080404783844444438FC18242426
:1002C0001818242418FC7C080404084854545424A6
:1002D00004043F44243C4040207C1C2040201C3C23
:1002E0004030403C44281028444C9090907C44641A
:1002F000544C4400083641000000770000004136AD
:10030000080002010204023C2623263C1EA1A16132
:10031000123A4040207A3854545559215555794164
:100320002154547841215554784020545579400C3B
:100330001E5272123955555559395454545939551C
:100340005454580000457C410002457D420001455F
:100350007C40F0292429F0F0282528F07C545545CC
:10036000002054547C547C0A097F4932494949325F
:100370003248484832324A4848303A4141217A3A74
:1003800042402078009DA0A07D39444444393D403E
:1003900040403D3C24FF2424487E4943662B2FFCEB
:1003A0002F2BFF0929F620C0887E09032054547999
:1003B000410000447D413048484A32384040227A6A
:1003C000007A0A0A727D0D19317D2629292F2826E7
:1003D0002929292630484D402038080808080808EF
:1003E0000808382F10C8ACBA2F102834FA00007B48
:1003F000000008142A142222142A1408AA00550006
:10040000AAAA55AA55AA000000FF00101010FF006C
:10041000141414FF001010FF00FF1010F010F0145F
:100420001414FC001414F700FF0000FF00FF141464
:10043000F404FC141417101F10101F101F141414B0
:100440001F00101010F0000000001F101010101FEF
:1004500010101010F010000000FF101010101010FD
:10046000101010FF10000000FF140000FF00FF003C
:10047000001F10170000FC04F414141710171414B4
:10048000F404F40000FF00F714141414141414F707
:1004900000F7141414171410101F101F141414F460
:1004A000141010F010F000001F101F0000001F14A7
:1004B000000000FC140000F010F01010FF10FF14FA
:1004C0001414FF141010101F00000000F010FFFFA4
:1004D000FFFFFFF0F0F0F0F0FFFFFF000000000072
:1004E000FFFF0F0F0F0F0F38444438447C2A2A3E79
:1004F000147E02020606027E027E026355494163B3
:100500003844443C04407E201E2006027E020299AC
:10051000A5E7A5991C2A492A1C4C7201724C304A45
:100520004D4D303048784830BC625A463D3E4949CE
:1005300049007E0101017E2A2A2A2A2A44445F4476
:100540004440514A444040444A51400000FF0103A6
:10055000E080FF000008086B6B0836123624360670
:100560000F090F060000181800000010100030409E
:10057000FF0101001F01011E00191D1712003C3C64
:100580003C3C000000000008102060023800000021
:100590000000000000000000FE0000000000000E4F
:1005A000000E00000000D0BE90D0BE9000001C6283
:1005B000FFC28000000C12924CB0880600807C6262
:1005C000B21CC0000000000E0E0000000000E01889
:1005D00004020200000002020418E00000002418D7
:1005E0007E18240000808080F08080800000000061
:1005F00000000000000080808080000000000000FB
:1006000000000000000000806018060000F804C22E
:10061000320CF80000000404FE000000000002821A
:1006200042221C00000002222222DC0000C0A0980E
:1006300084FE808000001E121222C20000F84422B4
:100640002222C00000000202C2320A0600008C52C0
:1006500022528C00003C42424226F800000000304A
:1006600030000000000000303000000000808040BA
:10067000402020100040404040404000001020201A
:10068000404080800000028242221C0000000000E6
:100690000000000000000000050000000000000055
:1006A0000000000000000700000700000000040434
:1006B0000F04030000040201030404030003040404
:1006C0000405030400000000000000000000030611
:1006D00008101000000010100806030000000000C1
:1006E00000000000000000000700000000000016ED
:1006F0000E000000000000000000000000000006E6
:1007000006000000000402010000000000010304D4
:1007100004020100000004040704040000000704B0
:1007200004040400000004040404030000000000AA
:100730000007000000000404040403000001020498
:100740000404030000000007000000000000030490
:100750000404030000000404040201000000000679
:1007600006000000000000160E000000000000015E
:100770000102020400010101010101000004020262
:1007800001010000000000050000000000F80472F4
:100790008AFA84780000C0380638C0000000FE22C3
:1007A0002222DC0000F804020202020000FE020223
:1007B0000204F8000000FE22222222000000FE2295
:1007C0002222220000F804020222E20000FE202081
:1007D0002020FE0000000202FE02020000000000D5
:1007E0000202FE0000FE40B0080402000000FE000D
:1007F0000000000000FE0C7080700CFE00FE0C304B
:10080000C000FE0000F804020204F80000FE4242AC
:1008100042221C0000F804020204F8000000FE421C
:1008200042A21C0000001C22424280000002020280
:10083000FE02020200FE00000000FE00000638C0BA
:1008400000C03806003EC0F00EF0C03E0000069822
:100850006098060000000618E0180600000202C2B8
:10086000320A0600000000FE020202020000061822
:10087000608000000002020202FE00000040300C16
:100880000C304000000000000000000000010204E5
:100890000404000000060101010101060000070434
:1008A000040403000001020404040400000704041B
:1008B0000402010000000704040404000000070013
:1008C000000000000001020404040700000700000B
:1008D00000000700000004040704040000000404F2
:1008E00004040300000700000102040000000704E4
:1008F00004040400000700000100000700070000D6
:1009000000030700000102040402010000070000C8
:1009100000000000000102040C121110000007008A
:1009200000010600000004040404030000000000AD
:100930000700000000030404040403000000000199
:10094000060100000000070000000700000006018B
:10095000000106000000000007000000000605047A
:10096000040404000000001F10101010000000001C
:100970000001020400101010101F00000000000011
:100980000000000000080808080808000000000235
:10099000040000000000E0101010F0000000FE2035
:1009A0001010E0000000E010101010000000E01037
:1009B0001010FE000000E0909090E000000020FC8D
:1009C000222222020000E0101010F0000000FE20A1
:1009D0001010E000001010F20000000000001010E5
:1009E00010F200000000FE80402010000000020213
:1009F000FE00000000F02010F02010F00000F020B9
:100A00001010E0000000E0101010E0000000F020E6
:100A10001010E0000000E0101010F0000000F020C6
:100A200010107000000060909090200000002020C6
:100A3000FC2020200000F0000000F000000070808A
:100A40000080700000F000C030C000F0000030C036
:100A5000C0300000000030C00080700000001010A6
:100A600090503000000080807E02020000000000F4
:100A7000FE000000000002027E80800000008080F6
:100A800000000080000000000000000000000000E6
:100A90000000000000000304040207000000070437
:100AA0000404030000000304040404000000030421
:100AB000040207000000030404040400000000070F
:100AC000000000000000332424221F000000070063
:100AD00000000700000000070404000000202020A0
:100AE000201F0000000007000102040000000000B9
:100AF00007040400000700000700000700000700CB
:100B000000000700000003040404030000003F0489
:100B1000040403000000030404023F000000070077
:100B200000000000000002040404030000000000B4
:100B3000030404040000030404020700000000038F
:100B40000403000000010601000106010000060187
:100B500001060000002020310E0300000000060501
:100B600004040400000000001F101000000000003A
:100B700007000000000010101F000000000100002E
:100B8000010101000000000000000000000A102E1A
:100B90000C01140000000000000000000000000034
:100BA0000000000000000078FC020303030302FCC5
:100BB000780000000000000000FF7E000002838338
:100BC000838302FC780000028383838302FC787EA7
:100BD000FF008080808000FF7E78FC028383838317
:100BE00002000078FC02838383830200000002037A
:100BF0000303030302FC7878FC028383838302FCF3
:100C00007878FC028383838302FC7800000060F024
:100C1000F060000000000000000000000000001E66
:100C20003F40C0C0C0C0403F1E00000000000000A8
:100C300000FF7E1C3E41C1C1C1C141000000004116
:100C4000C1C1C1C1413E1C0000010101010101FF00
:100C50007E000041C1C1C1C1413E1C1C3E41C1C119
:100C6000C1C1413E1C0000000000000000FF7E1CCE
:100C70003E41C1C1C1C1413E1C000041C1C1C1C111
:100C8000413E1C0C30300B012000C0F87C3E3EFC85
:100C9000F8C0000000000080E078FEFE00000000C8
:100CA0000000F07C3C3E3EFEFCE0000000007C3E8C
:100CB0003E3EFEF8C0000000000000000000F8FE0C
:100CC000FE0000000000FEFE3E3E3E3E3E000000F4
:100CD00000000080F0FC3E3E3EFC000000003E3E76
:100CE0003E3E3E3E3EFEFE00000000C0F8FE3E7E60
:100CF000FCE00000000000E0FC7E3EFEF8C00000CA
:100D00000000000000C0E0C00000000000F0FF0F85
:100D1000000000F9FFFFF000000000070300FFFFE4
:100D2000000000000000010000000000FFFF0000C4
:100D300000000000000000FFFF00000000000000B5
:100D4000E0FF1FFFFF0000000000FFFF00000000A9
:100D5000000000000000E0FF3F0000000000000075
:100D600000000000000000C0FC7F0300000000FF46
:100D7000FF000000FFFF00000000FEFF0300000076
:100D8000FFFFF00000000000003F7F3F0000000078
:100D900000FFFF0000E0FF1F00FFFF000000000059
:100DA0000000FFFF00000000000000000000E0FE67
:100DB0001F010000000000F8F8FCFFC70000000061
:100DC0000000C0FE3F0300FFFF00000000003F3FA7
:100DD0003E7EFCF8E00000000000FFFF80F07C7C1D
:100DE000F8F00000000000000080F8FF070000009D
:100DF000000000019FFFF8FE1F0100000000FFFF40
:100E0000C0000080FFFFFF000000000000000000A5
:100E10000000000000FFFFC0FC7F030000FFFF0098
:100E2000000000000000FFFF0000000000000000C4
:100E3000E0FE0F0100000000000000000000010FB4
:100E4000FFF8000000F8FFE7E0E0E0FFFFE0E0E08F
:100E50000000000000000007FFFE00000000FFFF90
:100E6000FF03000001FFFF0000000000F0FF0F0083
:100E7000000000000000C0FC3F03031FFFFCC00097
:100E80000000000F1F3E3E0F01FFFF0000000000AA
:100E900000008000000000000007FFFF07000000C6
:100EA000FCFF0700000000000000FFFF0000000042
:100EB0000000E0FE0F000000000000000000000045
:100EC000000000C0FF7F000000030303030303FFD3
:100ED000FF03030300000000000000C0FF7F0000CC
:100EE00000000FFFFF80000080FF7F00000000FE79
:100EF000FF030000000000000000FFFF8000000072
:100F000080FFFF000000000000000080FCFF0700E1
:100F10000000000000FFFFFF000000000000031FB2
:100F20003F7C7C3F1F0300000000007C7C7C7F7FB7
:100F30007C7C7C0000007F7F7C7C7C7C7C7C000057
:100F400000003F7E7C7C7E1F070000000000000048
:100F50000000007F7F00000000001F3E7C7C3E1FE1
:100F600007000000000000031F7F7C7C3F0700009B
:100F70000000007F7F000000000000000000011F53
:100F80003F7E7C7E3F1F01000000003E7C7C7E3F58
:100F90000F01000000000000000001000000000040
:100FA0000016103002002CFCFCC0C0F3F33C3CF0F7
:100FB000F0F0F0F0F03C3CF3F3C0C0FCFC0000C0EB
:100FC000C0F3F33C3CF0F0F0F0F0F03C3CF3F3C045
:100FD000C000000303CFCF3F3F0F0F0F0F0F0F0FC6
:100FE0000F0F0F3F3FCFCF03033F3F03033F3FCFE1
:100FF000CFCFCF0F0FCFCFCFCF3F3F03033F3F1810
:101000001030020030F0F0FCFCFCFC3C3C3F3FFFA9
:10101000FFFFFF3F3F3C3CFCFCFCFCF0F0F0F0FC31
:10102000FCFCFC3C3C3F3FFFFFFFFF3F3F3C3CFCE8
:10103000FCFCFCF0F0C3C3C3C333333F3F0F0F339B
:101040003333330F0F3F3F3333C3C3C3C3030333C0
:1010500033FFFFCFCF0F0F333333330F0FCFCFFF1C
:10106000FF33330303101030020020C0C0F0F03C07
:101070003CFFFFFFFF3C3CF0F0C0C0C0C0F0F03CC4
:101080003CFFFFFFFF3C3CF0F0C0C0C3C33333CF95
:10109000CF33333333CFCF3333C3C33333CFCF0324
:1010A000030F0F0F0F0303CFCF33330000000700F0
:1010B000020100000304060000000000000000011F
:1010C00002040810204080010204081020010204DC
:1010D00008102004040404040404040202020202AE
:1010E000020303030303030000000023002600297A
:1010F0000000000000250028002B00000000002454
:101100000027002A00004C101014A91B49111124BB
:101110001FBECFEFD8E0DEBFCDBF13E0A0E0B1E04F
:10112000E2E4F7E402C005900D92A63EB107D9F7BC
:1011300016E0A6EEB3E001C01D92A23DB107E1F7B3
:1011400011E1CCE0D1E104C02297FE010E94D12040
:10115000C630D107C9F70E94D11C0C9494230C947B
:101160000000880F991FFC01E058FE4F71836083D7
:10117000FC01EE54FB4F51834083FC01E858FB4FC8
:1011800031832083FC01EA5BFE4F71836083FC01A5
:10119000E25CFB4F51834083FC01EC5FFB4F3183EA
:1011A000208308958F929F92AF92BF92CF92DF9249
:1011B000EF92FF920F931F93CF93DF934B016A013E
:1011C0005901CCE0D0E0C81BD90B7C0110C09801BC
:1011D000A501B601C7010E94B1089801A501B60199
:1011E000CE010E94B1088FEFE81AF80A2197E8149F
:1011F000F9046CF3DF91CF911F910F91FF90EF9065
:10120000DF90CF90BF90AF909F908F9008952F92D6
:101210003F924F925F926F927F928F929F92AF9286
:10122000BF92CF92DF92EF92FF920F931F93CF93D3
:10123000DF9300D000D000D0CDB7DEB769837A83CA
:101240006A015901FC82EB8278019801220F331F59
:10125000280F391F3E832D831B01E49E4001E59E2C
:10126000900CF49E900C1124860E971E00E010E066
:101270002A01662457FC6094762C33C031E0A31613
:10128000B10441F4C801880D991DED81FE8191835F
:1012900080831CC0F2E0AF16B10439F42981ED81DE
:1012A000FE8120833A81318311C083E0A816B10406
:1012B00069F4A301920160E070E0CB010E94B31CCD
:1012C000620D731DED81FE8171836083FFEFEF1A64
:1012D000FF0A0C0D1D1D2D813E812E5F3F4F3E8369
:1012E0002D838B819C81E816F90640F226960FB675
:1012F000F894DEBF0FBECDBFDF91CF911F910F914C
:10130000FF90EF90DF90CF90BF90AF909F908F9025
:101310007F906F905F904F903F902F9008952F9205
:101320003F924F925F926F927F928F929F92AF9275
:10133000BF92CF92DF92EF92FF920F931F93CF93C2
:10134000DF93CDB7DEB76E970FB6F894DEBF0FBE52
:10135000CDBF0E94B01760936E0570936F058093A8
:101360007005909371050E94B0176EE181EF95E0D2
:101370000E94BC166B017C0164EC73E087E296E08E
:101380000E9428192AE030E0B701A60187E296E022
:101390000E94021A8091300290913102AA2797FD93
:1013A000A095BA2F8C159D05AE05BF0544F087E2C8
:1013B00096E00E94161A892B09F4C0C12AC06CEC71
:1013C00073E087E296E00E94471981E08093EF0383
:1013D0000E94B0176093FC037093FD038093FE039B
:1013E0009093FF03E6E4F1E04EE354E064E074E040
:1013F0008AE590E081939193DA011D921D92AD01EF
:10140000DB011D921D92BD01B1E0E038FB0791F7B1
:10141000CECF87E296E00E94931D6B017C0187E2AC
:1014200096E00E94931D4B015C0187E296E00E94CA
:10143000931D2B013C0187E296E00E94931D9B01C6
:10144000AC0187E296E02B8F3C8F4D8F5E8F0E9420
:10145000931D69837A838B839C8387E296E00E9445
:10146000931D6D837E838F83988787E296E00E9429
:10147000451A2B8D3C8D4D8D5E8D0A9709F05EC10E
:101480009C868B8612018901ED81FE81FA87E987AE
:10149000F4E0CF16D10409F4BAC0A4F491E0C9165F
:1014A000D10409F45AC01CF4CD2891F147C1B2E02F
:1014B000CB16D10409F495C0E3E0CE16D10409F0AF
:1014C0003DC199C0F6E0CF16D10409F4D3C00CF4A5
:1014D000A9C097E0C916D10431F0A4E6CA16D10418
:1014E00009F02CC11FC1C980DA80D601AA0FBB1F29
:1014F000BD016A5B7E4F8EE3E82E84E0F82EEA0E93
:10150000FB1EAC5FBB4F80E090E020E030E001C10B
:101510001092F1031092F0030E94B0176093000440
:10152000709301048093020490930304E6E4F1E0D5
:101530008EE394E044E054E0AB84BC84A192B19289
:10154000DC012D923D92CD01DA010D931D93AD0189
:10155000B1E0E038FB0781F7F1C01092F10381E0C0
:101560008093F0030E94B01760930004709301040D
:101570008093020490930304C980DA80D601AA0FF5
:10158000BB1FBD016A5B7E4FEEE3EE2EE4E0FE2E54
:10159000EA0EFB1EAC5FBB4F80E090E020E030E045
:1015A00017C0AB01480F591FAB84BC84FA01B1824C
:1015B000A082A701480F591FFA0131822082AD0194
:1015C000480F591FFA01118300832F5F3F4F029686
:1015D000A9014C0D5D1DA984BA844A155B050CF365
:1015E000ADC04DE1E42EF12C00E010E0A201B40109
:1015F0008AEF94E009C09DE1E92EF12C00E010E0B3
:10160000A201B40186EF91E00E94070997C02B85E3
:101610003C8581E0232B19F48093F3038FC08093E2
:10162000F2038CC01092F00381E08093ED032B8FC6
:101630003C8F4D8F5E8F0E94B0176093F4037093C0
:10164000F5038093F6039093F70389819A81909331
:10165000F5018093F4019092F1048092F0042B8DB7
:101660003C8D3093EF042093EE045092ED044092B1
:10167000EC0464C081E08093F0038093ED032B8F32
:101680003C8F4D8F5E8F0E94B01760930004709363
:10169000010480930204909303040E94B0176093A6
:1016A000F4037093F5038093F6039093F703A981F5
:1016B000BA81B093F501A093F4019092F104809265
:1016C000F0042B8D3C8D3093EF042093EE04509268
:1016D000ED044092EC04ED81FE81F0934501E0932E
:1016E00044012CC0AB01480F591FAB84BC84FA01E4
:1016F000B182A082A701480F591FFA0131822082CE
:10170000AD01480F591FFA01118300832F5F3F4F2E
:101710000296A9014C0D5D1DA984BA844A155B058A
:101720000CF30CC09092F9048092F8043093F70403
:101730002093F6045092F5044092F4040E94B017EE
:101740000091FC031091FD032091FE033091FF03F3
:10175000601B710B820B930B693E734081059105F1
:10176000E0F08091EF038130C1F4E6E4F1E04EE374
:1017700054E064E074E08AE590E011921192DA019D
:101780001D921D92AD01DB018D939D93BD01B1E0D2
:10179000E038FB0791F71092F0030E94B017009118
:1017A000F8031091F9032091FA033091FB03601BB9
:1017B000710B820B930B693E734081059105E0F03C
:1017C0008091EE038130C1F4E6E4F1E04EE354E0B1
:1017D00064E074E08AE590E011921192DA011D92C2
:1017E0001D92AD01DB018D939D93BD01B1E0E03809
:1017F000FB0791F71092F0030E94B01700910004CC
:10180000109101042091020430910304601B710BBC
:10181000820B930B0091440110914501222717FD83
:101820002095322F0617170728073907E0F4809113
:10183000F0038130C1F4E6E4F1E04EE354E064E00B
:1018400074E08AE590E011921192DA011D921D92E6
:10185000AD01DB018D939D93BD01B1E0E038FB0745
:1018600091F71092F0030E94B0170091F4031091C9
:10187000F5032091F6033091F703601B710B820B87
:10188000930B0091F4011091F501222717FD20958B
:10189000322F061717072807390788F48091ED03C0
:1018A000813069F4C9C21092ED031092F3041092D2
:1018B000F20405C001969093F3048093F2048091A2
:1018C000F303882361F18091040490910504843628
:1018D000910514F401962FC01092F303E0E8F1E0B3
:1018E000FA87E98724E335E03C8B2B8B8AE091E093
:1018F000988B8F87A2EBB4E0BE83AD83E8E7F4E07A
:10190000FA83E9832AEF34E03A8B298B86EF91E062
:101910009E8B8D8B00E010E0212C312C84C28091B5
:10192000F2038823D9F280910404909105041816DB
:10193000190634F401979093050480930404CECFE4
:101940001092F203CBCFA985BA856D917C9188273F
:1019500077FD8095982F0E949D1E2B013C01EB89FD
:10196000FC890190F081E02DF88FEF8BAD89BE8965
:101970008D919D91BE8BAD8BECE2F1E08E9FB0011D
:101980008F9F700D9E9F700D1124882777FD809585
:10199000982FC0906E05D0906F05E0907005F09084
:1019A00071056C197D098E099F090E949D1E6B01AE
:1019B0007C01AF88B88CB501882777FD8095982F7A
:1019C0000E949D1E9B01AC016BED7FE089EC90E4D1
:1019D0000E94021EA70196010E94D91F0E94FF1DAE
:1019E0004B015C019B01AC01C301B2010E94D91FF4
:1019F0009B01AC01C301B2010E94971D0E94D81E39
:101A000020E030E0A9010E94FB1D811166C0AD817C
:101A1000BE816D917C91882777FD8095982F0E94DB
:101A20009D1E2B013C01A50194010E94D91F9B0121
:101A3000AC01C301B2010E94971D0E94D81E20E094
:101A400030E0A9010E94FB1D811147C0E981FA81A4
:101A500060817181882777FD8095982F0E949D1E57
:101A60002B013C01A50194010E94D91F9B01AC01EF
:101A7000C301B2010E94971D0E94D81E20E030E0F1
:101A8000A9010E94FB1D811128C0F801EA5BFE4FED
:101A900080819181A985BA858D939C93F801E25C40
:101AA000FB4F80819181ED81FE8191838083F801DC
:101AB000EC5FFB4F80819181A981BA818D939C93CA
:101AC000E989FA8980819181AF88B88CA816B90616
:101AD00021F0AF85B8891D921C92E989FA8901909D
:101AE000F081E02DFC87EB87AF88B88CAE16BF067F
:101AF00009F4A6C0A985BA856D917C91882777FDE8
:101B00008095982F0E949D1E2B013C01AB84BC84C4
:101B1000B501882777FD8095982F0E949D1E9B0117
:101B2000AC016BED7FE089EC90E40E94021EA701FE
:101B300096010E94D91F0E94FF1D9B01AC01C301A9
:101B4000B2010E94D91F9B01AC01C301B2010E94E6
:101B5000971D0E94D81E20E030E0A9010E94FB1DC5
:101B600081116EC0AD81BE816D917C91882777FD1A
:101B70008095982F0E949D1E4B015C01F801E65450
:101B8000FE4F0190F081E02DEE0FFF1FE650FB4F5E
:101B900060817181882777FD8095982F0E949D1E16
:101BA0009B01AC016BED7FE089EC90E40E94021E8A
:101BB000A70196010E94D91F0E94FF1D2B013C0125
:101BC0009B01AC01C501B4010E94D91F9B01AC016E
:101BD000C501B4010E94971D0E94D81E20E030E08C
:101BE000A9010E94FB1D81112BC0E981FA8160814E
:101BF0007181882777FD8095982F0E949D1E4B014B
:101C00005C01A30192010E94D91F9B01AC01C50197
:101C1000B4010E94971D0E94D81E20E030E0A90167
:101C20000E94FB1D81110CC0AB84BC84AB89BC89B4
:101C3000AD92BC92E1E0F0E0AF85B889ED93FC9302
:101C4000A985BA856D917D91BA87A987882777FD87
:101C50008095982F0E949D1E2B013C01EB89FC89E9
:101C600061917191FC8BEB8B882777FD8095982F84
:101C70000E949D1E9B01AC016BED7FE089EC90E41E
:101C80000E94021EA70196010E94D91F0E94FF1DFB
:101C90004B015C019B01AC01C301B2010E94D91F41
:101CA0009B01AC01C301B2010E94971D0E94D81E86
:101CB0006B877C878D879E87AF85B8896D917D9175
:101CC000B88BAF87882777FD8095982F0E949D1E3F
:101CD0006B017C01ED81FE8161917191FE83ED8349
:101CE000882777FD8095982F0E949D1E2B013C012F
:101CF000A50194010E94D91F9B01AC01C301B2014F
:101D00000E94971D0E94D81E6F8B788F898F9A8FA3
:101D1000A981BA816D917D91BA83A983882777FDC6
:101D20008095982F0E949D1E2B013C01A5019401D6
:101D30000E94D91F9B01AC01C301B2010E94971DF3
:101D40000E94D81E2B013C016091F4047091F504AF
:101D5000882777FD8095982F0E949D1E4B015C017E
:101D6000A7019601C301B2010E94D91F9B01AC01DA
:101D7000C501B4010E94971D0E946A1E762E6091D3
:101D8000F6047091F704882777FD8095982F0E94BC
:101D90009D1E4B015C01A70196016F89788D898D8D
:101DA0009A8D0E94D91F9B01AC01C501B4010E940C
:101DB000971D0E946A1E662E6091F8047091F904C6
:101DC000882777FD8095982F0E949D1E4B015C010E
:101DD000A70196016B857C858D859E850E94D91F04
:101DE0009B01AC01C501B4010E94971D0E946A1EAF
:101DF000262F472D662D822F0E9473159B01AC0163
:101E0000B1018EED95E00E9442158EED95E00E94A5
:101E10008114BFEF2B1A3B0A0E5F1F4FE989FA8925
:101E20003296FA8BE98B8EED95E00E94801528168C
:101E3000390608F488CD28C08091F2049091F3040B
:101E40000091EC041091ED042091EE043091EF0428
:101E50004091F0045091F104BC016F5F7F4F0E94EC
:101E6000D2080E94B0176093F4037093F503809337
:101E7000F6039093F7038091F2049091F304863077
:101E800091050CF010CD16CD6E960FB6F894DEBF0E
:101E90000FBECDBFDF91CF911F910F91FF90EF90BB
:101EA000DF90CF90BF90AF909F908F907F906F907A
:101EB0005F904F903F902F900895EF92FF920F9375
:101EC0001F9340E855E260E070E087E296E00E94F0
:101ED000291B8EED95E00E9474148EED95E00E9412
:101EE000811440ED57E060E070E081EF95E00E94E2
:101EF000FC158FE096E00E94A81361E08FE096E069
:101F00000E948B138FE096E00E942B13E4E3F5E030
:101F100088EE93E08193919325E0EE36F207D1F7B6
:101F2000EAEFF4E088EE93E08193919325E0E433C7
:101F3000F207D1F7E0E8F1E01192119281E0EA3B7B
:101F4000F807D1F7E2EBF4E01192119224E0EC3EB5
:101F5000F207D1F7E8E7F4E08AE590E08193919306
:101F600024E0E23BF207D1F7E6E4F1E011921192AE
:101F700081E0E038F807D1F7EEE3F4E01192119236
:101F800024E0E837F207D1F7E4E0F4E08AE590E0F6
:101F90008193919324E0EE33F207D1F7EAE0F1E088
:101FA00081E090E08193919321E0E434F207D1F74E
:101FB0009DE1E92EF12C00E010E023E030E04AE062
:101FC00050E060E070E086EF91E00E940709109217
:101FD000B3011092B2011092B5011092B4011092A7
:101FE000B7011092B6011092B9011092B801109287
:101FF000E5041092E4041092E7041092E6041092B3
:10200000E9041092E8041092EB041092EA04109292
:10201000AB041092AA041092AD041092AC0410927A
:10202000AF041092AE041092B1041092B00410925A
:1020300079011092780110927B0110927A0110922E
:102040007D0110927C0110927F0110927E0110920E
:102050007104109270041092730410927204109222
:102060007504109274041092770410927604109202
:1020700037041092360410923904109238041092EA
:102080003B0410923A0410923D0410923C041F91BC
:102090000F91FF90EF90089543E062E081EF95E0AB
:1020A0000E94841523E046E06DE170E08EED95E03E
:1020B0000E941B148091320290913302A09134024D
:1020C000B0913502AC01BD0170584093BE055093EC
:1020D000BF056093C0057093C1058093C2059093BE
:1020E000C305A093C405B093C5058093C60590931E
:1020F000C705A093C805B093C9054093CA0550937E
:10210000CB056093CC057093CD054093CE055093DD
:10211000CF056093D0057093D1058093D20590933D
:10212000D305A093D405B093D5058093D60590939D
:10213000D705A093D805B093D9054093DA055093FD
:10214000DB056093DC057093DD0540939E0550939D
:102150009F056093A0057093A1054093A20550933D
:10216000A3056093A4057093A5058093A60590939D
:10217000A705A093A805B093A9058093AA059093FD
:10218000AB05A093AC05B093AD054093AE0550935D
:10219000AF056093B0057093B1054093B2055093BD
:1021A000B3056093B4057093B5058093B60590931D
:1021B000B705A093B805B093B9058093BA0590937D
:1021C000BB05A093BC05B093BD0540937E0550931D
:1021D0007F0560938005709381054093820550933D
:1021E000830560938405709385054093860550931D
:1021F0008705609388057093890540938A055093FD
:102200008B0560938C0570938D0580938E0590935C
:102210008F05A0939005B0939105809392059093BC
:102220009305A0939405B09395058093960590939C
:102230009705A0939805B093990580939A0590937C
:102240009B05A0939C05B0939D050E94B0176093D9
:102250007A0570937B0580937C0590937D050E94A1
:10226000B017609376057093770580937805909307
:1022700079050E94B017609372057093730580937F
:102280007405909375056BEC73E086EE93E00C9407
:102290006A1C86EE93E00E94F91B8EED95E00C948B
:1022A00065140DB407FEFDCF08950F936034D8F583
:1022B0004033C8F50130C9F42130A9F5E42FE69583
:1022C000E695E69580E4E89FF0011124E60FF11D04
:1022D000EC5BFD4F477081E090E0042E01C0880F59
:1022E0000A94EAF7908198271DC0842F86958695D9
:1022F0008695E62FF0E090E4899FE00DF11D112412
:10230000EC5BFD4F477081E090E0042E01C0880F28
:102310000A94EAF7213019F49081982B03C0809534
:102320009081982390830F910895DC01673008F025
:1023300033C018966C931897E62FF0E0EE0FFF1F4E
:10234000EA5CFD4F80819181FC01249116962C93CB
:1023500016973196E4911796EC931797FC013296F5
:10236000E4911996EC931997FC013396E4911A962F
:10237000EC931A97FC0134962491FC0135968491D4
:1023800090E0F4E62F9F800D911D11241E969C93E2
:102390008E931D9781E0089580E008955F926F927B
:1023A0007F928F929F92AF92BF92CF92DF92EF92E5
:1023B000FF920F931F93CF93DF93EC01162FF42E10
:1023C000902E3985231708F4B2C04A8550E0430F98
:1023D000511D822F90E0841795070CF0A8C0D22ED3
:1023E000D31A8F8086948694869481E0881508F4A9
:1023F00077C02DC0321799F0E885F0E0EE0FFF1F8F
:10240000EA5CFD4FD29E400D511D11244A5F5F4F83
:102410000190F081E02DE40FF51FA49001C0A12CE4
:10242000B12C4B2D4F0DA0FE03C00E2D292D04C045
:1024300021E0911020E00E2D6C2DCE010E9455114F
:10244000A694B39488E0B812ECCFC39401C0C62E12
:102450003C2D311B2E81822F90E0432F50E08417BA
:10246000950744F664C0E885F0E0EE0FFF1FEA5CD4
:10247000FD4F2D853E85A29EC001A39E900DB29E6C
:10248000900D11248C0D9D1D840F911D0190F081E4
:10249000E02DE80FF91F5490612C462D4F0D50FE92
:1024A00003C00E2D292D04C021E0911020E00E2D37
:1024B000672DCE010E9455115694639488E06812EE
:1024C000ECCF7394472D411B8E81481760F28FEF3C
:1024D000A81AB80A88E0F80EA81448F5712EF2CFB1
:1024E000ED85FE852E8130E0CF01B9010E947D206F
:1024F0008D2D90E00E947D20829F6001839FD00CF3
:10250000929FD00C11248E9E90018F9E300D11242D
:10251000269FC001279F900D369F900D1124C80E55
:10252000D91EA12CB12C86E0C80ED11CD7CFDF91CB
:10253000CF911F910F91FF90EF90DF90CF90BF90C0
:10254000AF909F908F907F906F905F900895EF92E3
:102550000F93CF93DF93EC01262F6A3009F415C057
:102560006D30C1F0ED800C814C856B850E94CE11E1
:102570004E812B85240F2F5F2B8730E080E490E085
:10258000841B9109821793072CF48C859F81890FF6
:102590008C871B8681E090E0DF91CF910F91EF90C7
:1025A00008952A9A22982898209A60E08DE00E9447
:1025B000B91860E08BE00E94B91861E08DE00E94DC
:1025C000811861E08BE00E9481188CB580618CBD20
:1025D00008958CB580648CBD2A98229A08950DB414
:1025E00007FEFDCF2898209A2A9A22988CB58F7BD7
:1025F0008CBD0895CF93DF9300D01F92CDB7DEB787
:102600002B834A8369830E94E91269816EBD0E940F
:1026100051114A814EBD0E9451112B812EBD0F9048
:102620000F900F90DF91CF910C94EF12CF93DF9327
:1026300000D0CDB7DEB74A8369830E94E912698171
:102640006EBD0E9451114A814EBD0F900F90DF91D7
:10265000CF910C94EF120F931F93CF93DF93EC0164
:1026600040E060E20E9416132FE540E261E2CE01F5
:102670000E94FA1225E040E062E2CE010E94FA12C6
:102680000E94E912289A2098809144028EBD05E4A8
:1026900012E00E945111F80181918F018EBDF3E08B
:1026A000043C1F07B1F70E94EF1242E060E2CE0146
:1026B000DF91CF911F910F910C9416130F931F93DD
:1026C000CF93DF93EC0140E060E20E9416132FE706
:1026D00040E061E2CE010E94FA1227E040E062E2AF
:1026E000CE010E94FA120E94E912289A20981EBC7C
:1026F0000FEF13E00E9451111EBC01501109D1F7D8
:102700000E94EF1242E060E2CE01DF91CF911F9173
:102710000F910C941613613011F40C945E1380E841
:1027200091E0E4E4F2E0DF019C011D922150304091
:10273000E1F708952CB5982F93702C7F922B9CBDB8
:102740009DB582FB882780F99E7F982B9DBD0895BB
:10275000CF93DF93EC0160E00E94951181E08C83C0
:102760001D821B861C865F98579A61E084E00E9458
:10277000811861E084E00E94B9186AE070E080E0AE
:1027800090E00E94EC175F9A579865E070E080E057
:1027900090E00E94EC175F98579A84E00E949A1389
:1027A0000E94D11265E070E080E090E00E94EC179A
:1027B0005F9A57986AE070E080E090E00E94EC1722
:1027C0004FE268EACE010E94161344E16DE8CE01A3
:1027D0000E9416130E94E91281EA8EBD0E94EF1238
:1027E0000E94E91288EC8EBD0E94EF124FE861E86A
:1027F000CE010E94161341EF69EDCE010E9416131F
:1028000040E46BEDCE010E9416130E94E9128FEA9C
:102810008EBD0E94EF12CE01DF91CF910C945E131A
:10282000109212061092110682ED93E0909310061A
:1028300080930F060895FF920F931F93CF93DF931A
:10284000EC01F22E798368838B01000F111F060FB4
:10285000171F0A831B834C832B8750E0FA01ED522C
:10286000FF4EE491F0E0EE0FFF1FEF50FF4E859119
:102870009491888B998BFA01E154FF4E44914A8BD5
:10288000C8010E94E1209F838E83009729F0A80150
:1028900060E070E00E944723F0FE04C081E088877A
:1028A00019860BC0F2FE06C081E0888782E0898726
:1028B0001A8605C0188681E0898782E08A87DF91C1
:1028C000CF911F910F91FF900895CF93DF93EC016B
:1028D0008E819F81009711F00E947C2160E08C81A5
:1028E000DF91CF910C948118CF93DF93EC0161E0DD
:1028F0008C810E94811860E08C81DF91CF910C94D3
:10290000B918CF92DF92EF92FF920F931F93CF935C
:10291000DF93CDB7DEB729970FB6F894DEBF0FBEB1
:10292000CDBF8C01DC0116968D919C911797892B58
:1029300009F499C00E94C217F801C484D584E684C2
:10294000F7846C197D098E099F0962337105810531
:10295000910580F3F894D801828193819A838983C9
:10296000E680F780F70181917F0189871B969C9112
:102970001B9750960D90BC91A02DF801828991FF74
:102980002EC09C91982B98879C91809589238F834A
:102990008F818E8388E08D8358856F8149853D8145
:1029A0002E8189819A81F7015C9347FD252F3A9505
:1029B0002C93262F39F0441F00C000006C930000B8
:1029C00000C0F2CF38E041916C930000019761F7AD
:1029D000F801B18BA08B49873D832E8338C09C9131
:1029E000982B98879C91809589238F838F818C83E6
:1029F00088E08B8358856F8149853B812C81898153
:102A00009A81F7015C9347FD252F00C000C02C93ED
:102A100000C000C000C000C000C06C930000262FA2
:102A20003A9541F0441F000000C000C000C000C043
:102A300000C0E8CF38E0419100C06C9300C001971E
:102A400009F7F801B18BA08B49873B832C839A83CC
:102A5000898378940E94C217D8011C966D937D9348
:102A60008D939C931F9729960FB6F894DEBF0FBEE7
:102A7000CDBFDF91CF911F910F91FF90EF90DF902D
:102A8000CF900895CF93FC01A081B1816A177B0795
:102A900040F5C32FA581AA2361F04A9FA00111240C
:102AA000452F3A9FC0011124C92F2A9F900111245C
:102AB000232FDB01AA0FBB1FA60FB71F86819781AB
:102AC0008A0F9B1F3085DC01A30FB11D4C9331850C
:102AD000DC01A30FB11DCC933285FC01E30FF11D86
:102AE0002083CF9108950F931F93042F10E020E0CF
:102AF00030E0162B282BB801C9011F910F910895C2
:102B0000FC01808191810895EF92FF920F931F93B2
:102B1000CF93DF93EC01E62EF42E21E030E03983F1
:102B2000288326E331E03F832E8300EE15E729E07A
:102B300030E0088719872A873B8700E21EE420E0FF
:102B400030E00C871D872E873F8783E1861720F4AE
:102B50002FEF3FEF3983288383E18F1520F42FEF88
:102B60003FEF3983288361E08E2D0E94811860E059
:102B70008F2D0E94811860E08E2D0E94B9186E2D55
:102B800070E0FB01E154FF4EE491E88FFB01ED5250
:102B9000FF4EE491F0E0EE0FFF1FE951FF4E25914B
:102BA0003491298F3A8F4F2D50E0FA01E154FF4EB6
:102BB000E491EB8FFA01ED52FF4EE491F0E0EE0F5D
:102BC000FF1FE951FF4E859194918C8F9D8F4FEFA0
:102BD0005FEF6FEF7FE04A835B836C837D830E94AE
:102BE000B017688B798B8A8B9B8BDF91CF911F916C
:102BF0000F91FF90EF900895FC01448755876687F9
:102C000077870895CF93DF93EC01F894E98DFA8DDF
:102C10009281888D809589238283EC8DFD8D9181B1
:102C20008B8D809589238183EC8DFD8D92818B8D99
:102C3000809589238283EC8DFD8D81819B8D892BED
:102C40008183EC8DFD8D92818B8D8095892382838C
:102C50008AE090E00E941218EC8DFD8D91818B8DA1
:102C6000809589238183EC8DFD8D92818B8D80955C
:102C700089238283E98DFA8D8281988D892B8283C5
:102C80007894EC8DFD8D3B8D208123234C895D89CB
:102C90006E897F8988859985AA85BB85211145C064
:102CA000481759076A077B0708F448C03EC0F894E4
:102CB000EC8DFD8D82819B8D892B8283EC8DFD8D2A
:102CC00081819B8D892B8183EC8DFD8D82819B8DF4
:102CD000892B8283EC8DFD8D91818B8D809589234D
:102CE0008183EC8DFD8D92818B8D809589238283EC
:102CF000E98DFA8D9281888D8095892382837894DD
:102D0000EC8DFD8D3B8D208123234C895D896E895F
:102D10007F8988859985AA85BB852223C1F04817BC
:102D200059076A077B07D8F012C084179507A607D2
:102D3000B70708F0BCCF2EEF3FEF1AC04F5F5F4FD1
:102D40006F4F7F4F4C8B5D8B6E8B7F8B9DCF48176A
:102D500059076A077B0778F721E030E009C04F5F29
:102D60005F4F6F4F7F4F4C8B5D8B6E8B7F8BCBCFCD
:102D7000C901DF91CF910895AF92BF92CF92DF92B8
:102D8000EF92FF920F931F93CF93DF931F92CDB7D4
:102D9000DEB75C01FC01148A158A168A178A66233D
:102DA00009F468C08081918197FD68C010E0C50179
:102DB00069830E940216698197FD64C01F5F161324
:102DC000F6CF0E94B017F501008911892289338955
:102DD000601B710B820B930B048515852685378547
:102DE000061717072807390748F5C488D588E688E5
:102DF000F7886281738184819581C616D706E806BB
:102E0000F90629F0C61AD70AE80AF90A03C0C12C44
:102E1000D12C76010E949B1E2DEC3CEC4CEC5DE32A
:102E20000E94D91F0E946A1ECB01AA2797FDA09578
:102E3000BA2FC816D906EA06FB0648F1F50104893F
:102E400015892689378982819381A481B5810817E4
:102E500019072A073B0720F4028313832483358351
:102E6000F50182819381A481B581081B190B2A0B7E
:102E70003B0B1EC000E010E098011AC00FEF1FEFDF
:102E8000980116C00EEF1FEF2FEF3FEF11C08FEF2D
:102E90009FEFAFEFBFE0F50182839383A483B583F7
:102EA0000E94B017F501608B718B828B938BC6CF1C
:102EB000B801C9010F90DF91CF911F910F91FF9041
:102EC000EF90DF90CF90BF90AF9008951F920F9238
:102ED0000FB60F9211242F933F938F939F93AF932D
:102EE000BF9380911E0690911F06A0912006B0917D
:102EF000210630912606232F2D5F2D3720F40196D1
:102F0000A11DB11D05C0232F2A570296A11DB11D79
:102F10002093260680931E0690931F06A0932006FA
:102F2000B09321068091220690912306A091240659
:102F3000B09125060196A11DB11D809322069093A4
:102F40002306A0932406B0932506BF91AF919F91CD
:102F50008F913F912F910F900FBE0F901F9018955A
:102F60000F931F938FB7F89400911E0610911F06C0
:102F700020912006309121068FBFB801C9011F9111
:102F80000F9108950F931F939FB7F8940091220615
:102F900010912306209124063091250686B5A89B22
:102FA00006C08F3F21F00F5F1F4F2F4F3F4F9FBF36
:102FB000322F212F102F0027080F111D211D311D29
:102FC00042E0000F111F221F331F4A95D1F7B801AD
:102FD000C9011F910F910895CF92DF92EF92FF9256
:102FE000CF93DF936B017C010E94C217EB010EC0EF
:102FF0000E94C2176C1B7D0B683E734038F081E065
:10300000C81AD108E108F108C851DC4FC114D10435
:10301000E104F10469F7DF91CF91FF90EF90DF9029
:10302000CF900895019739F0880F991F880F991F45
:1030300002970197F1F70895789484B5826084BD72
:1030400084B5816084BD85B5826085BD85B58160AC
:1030500085BDEEE6F0E0808181608083E1E8F0E00C
:103060001082808182608083808181608083E0E83B
:10307000F0E0808181608083E1EBF0E0808184601A
:103080008083E0EBF0E0808181608083EAE7F0E01C
:103090008081846080838081826080838081816080
:1030A00080838081806880831092C100089583307E
:1030B00069F028F48130A1F0823011F514C0863017
:1030C000B1F08730C1F08430D9F404C08091800021
:1030D0008F7703C0809180008F7D8093800008955A
:1030E00084B58F7702C084B58F7D84BD08958091AB
:1030F000B0008F7703C08091B0008F7D8093B000C7
:103100000895CF93DF9390E0FC01E154FF4E44918A
:10311000FC01ED52FF4E8491882341F190E0880F2D
:10312000991FFC01E550FF4E25913491D9018F5034
:103130009F4EFC0185919491C82FD92F9FB7F89489
:103140008C91611106C0409584238C9388818423DF
:1031500008C0623041F4242F209582238C9388810B
:10316000842B888302C0842B8C939FBFDF91CF91E7
:1031700008950F931F93CF93DF931F92CDB7DEB7C0
:10318000282F30E0F901E555FF4E8491F901E15413
:10319000FF4E1491F901ED52FF4E04910023D1F03E
:1031A000882321F069830E9457186981E02FF0E09D
:1031B000EE0FFF1FEF50FF4E85919491DC019FB7FA
:1031C000F8948C91611103C01095812301C0812B6B
:1031D0008C939FBF0F90DF91CF911F910F91089516
:1031E000CF92DF92EF92FF920F931F93CF93DF93D3
:1031F0006C01EB017A01E60EF71E00E010E00BC057
:103200006991D601ED91FC910190F081E02DC6010C
:103210000995080F191FCE15DF0591F7C801DF9139
:10322000CF911F910F91FF90EF90DF90CF90089575
:10323000DB010D900020E9F7AD0141505109461B1B
:10324000570BDC01ED91FC910280F381E02D099494
:103250000C941819DC01ED91FC910190F081E02DA6
:1032600009940F931F93CF93DF93EC016DE00E94BD
:103270002A198C016AE0CE010E942A199C01200FB4
:10328000311FC901DF91CF911F910F9108950F93C5
:103290001F93CF93DF93EC010E9418198C01CE018C
:1032A0000E9431199801280F391FC901DF91CF9170
:1032B0001F910F9108954F925F926F927F929F920C
:1032C000AF92BF92CF92DF92EF92FF920F931F9334
:1032D000CF93DF93CDB7DEB7A1970FB6F894DEBFDB
:1032E0000FBECDBF5C016A017B01922E19A281E065
:1032F000821710F08AE0982E8E010F5D1F4F492C27
:10330000512C612C712CC701B601A30192010E94BE
:1033100091208C2D929E80191124015011098A3020
:1033200014F4805D01C0895CF801808369017A0131
:10333000C114D104E104F10431F7B801C5010E94C0
:103340001819A1960FB6F894DEBF0FBECDBFDF915E
:10335000CF911F910F91FF90EF90DF90CF90BF9092
:10336000AF909F907F906F905F904F900895CF9215
:10337000DF92EF92FF920F931F93CF93DF93EC01B5
:103380006A017B012115310579F4E881F981019009
:10339000F081E02D642FDF91CF911F910F91FF906D
:1033A000EF90DF90CF9009942A30310519F477FD22
:1033B0000EC02AE0B701A601CE01DF91CF911F9187
:1033C0000F91FF90EF90DF90CF900C945B196DE21E
:1033D0000E942A198C0144275527BA014C195D090E
:1033E0006E097F092AE0CE010E945B19080F191FA0
:1033F000C801DF91CF911F910F91FF90EF90DF9067
:10340000CF9008950F931F93CF93DF93EC010E9409
:10341000B7198C01CE010E9431199C01200F311F78
:10342000C901DF91CF911F910F910895FC0184850F
:103430009585FC01E05CFF4F20813181FC01EE5B52
:10344000FF4F80819181281B390B2F733327C901CE
:103450000895FC0184859585FC01E05CFF4F408167
:103460005181FC01EE5BFF4F2081318142175307F0
:1034700041F00190F081E02DE80FF91F208130E04C
:1034800002C02FEF3FEFC9010895FC0184859585A7
:10349000FC01E05CFF4F40815181FC01EE5BFF4F7E
:1034A000208131814217530781F0A081B181A80F9B
:1034B000B91F8C91208131812F5F3F4F2F733327AC
:1034C00031832083282F30E002C02FEF3FEFC90166
:1034D0000895FC0186859785FC01E05CFF4FDC01C7
:1034E000AE5BBF4F408151812D913C9111974217A6
:1034F0005307C1F70895CF93DF93FC018685978525
:10350000DC01A05CBF4F2D913C9111972F5F3F4F85
:103510002F733327EC01CE5BDF4F4881598124178D
:103520003507D9F30D90BC91A02DA80FB91F6C934E
:10353000A685B785A05CBF4F11963C932E93A689B4
:10354000B7892C9181E090E0058C02C0880F991F0B
:103550000A94E2F7282B2C9381E090E0DF91CF9141
:10356000089508951F920F920FB60F9211242F9372
:103570003F934F938F939F93EF93FF934091C60098
:103580008091CA069091CB0601968F73992720915E
:10359000CC063091CD068217930759F0E091CA0608
:1035A000F091CB06E657F94F40839093CB0680937A
:1035B000CA06FF91EF919F918F914F913F912F916B
:1035C0000F900FBE0F901F90189587E296E00E9413
:1035D000161A892B11F00C94B11A08951F920F92AC
:1035E0000FB60F9211242F933F938F939F93EF93D6
:1035F000FF932091860630918706809188069091EE
:1036000089062817390731F48091C1008F7D809396
:10361000C10014C0E0918806F0918906EA5BF94F79
:103620002081809188069091890601968F73992751
:1036300090938906809388062093C600FF91EF91AE
:103640009F918F913F912F910F900FBE0F901F90E0
:103650001895CF92DF92EF92FF92CF93DF93EC0118
:103660006A017B01411581EE580761057105F9F08A
:10367000EC89FD8981E090E00E8C02C0880F991FD3
:103680000A94E2F7808360E079E08DE390E0A7019F
:1036900096010E9491202150310941095109569506
:1036A000479537952795211580E1380798F0EC89E3
:1036B000FD89108260E874E88EE190E0A701960130
:1036C0000E94912021503109410951095695479591
:1036D00037952795E889F9893083EA89FB89208322
:1036E000EE89FF89408181E090E09C010A8C02C054
:1036F000220F331F0A94E2F7422B4083EE89FF89A1
:1037000040819C010B8C02C0220F331F0A94E2F708
:10371000422B4083EE89FF8940819C010C8C02C0C2
:10372000220F331F0A94E2F7422B4083EE89FF8970
:1037300020810D8C02C0880F991F0A94E2F78095B2
:1037400082238083DF91CF91FF90EF90DF90CF9025
:10375000089510922A061092290688EE93E0A0E0C0
:10376000B0E080932B0690932C06A0932D06B09387
:103770002E068AED93E090932806809327068AE828
:1037800096E0909334068093330686E496E0909317
:1037900036068093350685EC90E09093380680934A
:1037A000370684EC90E090933A068093390680ECDB
:1037B00090E090933C0680933B0681EC90E09093E0
:1037C0003E0680933D0686EC90E090934006809301
:1037D0003F0684E08093410683E08093420687E0C1
:1037E0008093430685E08093440681E080934506FC
:1037F0000895FC01808191810C947C21CF93DF930B
:10380000EC0188819981009711F00E947C21198236
:1038100018821D821C821B821A82DF91CF9108952B
:103820000F931F93CF93DF93EC018B016F5F7F4F5B
:10383000888199810E947622009731F0998388834C
:103840001B830A8381E001C080E0DF91CF911F914B
:103850000F910895CF93DF93EC0188819981892B93
:1038600031F08A819B818617970708F00CC0CE0142
:103870000E94101C882349F08C819D81892B19F4AA
:10388000E881F981108281E001C080E0DF91CF9171
:103890000895EF92FF920F931F93CF93DF93EC0164
:1038A0007B018A01BA010E942A1C811104C0CE0149
:1038B0000E94FE1B07C01D830C83B701888199817C
:1038C0000E944E23CE01DF91CF911F910F91FF9067
:1038D000EF900895DC0111961C921E9213961C9293
:1038E0001E92129715961C921E92149716961C9271
:1038F0006115710559F0DB010D900020E9F7AD016C
:1039000041505109461B570B0C94491C08950F93C5
:103910001F93CF93DF9300D000D0CDB7DEB79B01CC
:10392000AC01611571058105910579F069833A83D0
:103930004B835C830E94682229813A814B815C81A0
:103940000E94B3208B019C0103C000E010E09801AD
:10395000B801C9010F900F900F900F90DF91CF9198
:103960001F910F910895CF92DF92EF92FF926B011A
:103970007C01621773078407950764F4CA01B901D3
:103980006C197D098E099F090E94871CC60ED71EDF
:10399000E81EF91EB601C701FF90EF90DF90CF90AF
:1039A00008950E941C180E945D0FC5EEDAE10E9486
:1039B0008F092097E1F30E94E51AF9CF0F931F9327
:1039C000CF93DF93EC010E94B017688779878A87CD
:1039D0009B87E881F9810084F185E02DCE0109956E
:1039E0009C0197FF15C00E94B017088519852A858C
:1039F0003B85601B710B820B930B0C811D812E810B
:103A00003F81601771078207930718F32FEF3FEF8D
:103A1000C901DF91CF911F910F910895CF93DF934B
:103A2000EC01CE010E94DE1C9C0197FD0EC08D3280
:103A3000910559F0C0970A9740F0E881F981068016
:103A4000F781E02DCE010995ECCFC901DF91CF912F
:103A50000895CF92DF92FF920F931F93CF93DF933E
:103A600000D000D0CDB7DEB76C01062F0E940E1D2E
:103A7000FC0120E030E0A90197FD47C0F12C11279F
:103A800007FD1095E017F107E9F0ED32F105C1F0FF
:103A9000CF01C0970A97B0F4AAE0B0E00E9472206C
:103AA0009B01AC01CF01AA2797FDA095BA2F280F43
:103AB000391F4A1F5B1F205331094109510902C0B8
:103AC000FF24F394D601ED91FC910680F781E02D5F
:103AD000C60129833A834B835C830995C6010E9402
:103AE000DE1CFC01C09729813A814B815C810A97D9
:103AF00048F2E017F10731F2FF2039F05095409578
:103B0000309521953F4F4F4F5F4FB901CA010F903C
:103B10000F900F900F90DF91CF911F910F91FF9019
:103B2000DF90CF90089561E00C94291D5058BB2779
:103B3000AA270ED0DCC1A5D130F0AAD120F031F4F3
:103B40009F3F11F41EF49AC10EF4E095E7FB67C1A4
:103B5000E92FEFD180F3BA1762077307840795073F
:103B600018F071F49EF51EC20EF4E0950B2EBA2FDC
:103B7000A02D0B01B90190010C01CA01A001112473
:103B8000FF27591B99F0593F50F4503E68F11A161F
:103B9000F040A22F232F342F4427585FF3CF4695B0
:103BA00037952795A795F0405395C9F77EF41F16D2
:103BB000BA0B620B730B840BBAF09150A1F0FF0F9C
:103BC000BB1F661F771F881FC2F70EC0BA0F621F88
:103BD000731F841F48F4879577956795B795F79578
:103BE0009E3F08F0B3CF9395880F08F09927EE0F0A
:103BF000979587950895EFD008F481E0089550D106
:103C0000E39586C10CD073C143D140F03AD130F076
:103C100021F45F3F19F003C15111C5C12FC189D1F2
:103C200098F39923C9F35523B1F3951B550BBB2783
:103C3000AA2762177307840738F09F5F5F4F220F30
:103C4000331F441FAA1FA9F333D00E2E3AF0E0E829
:103C500030D091505040E695001CCAF729D0FE2F75
:103C600027D0660F771F881FBB1F26173707480707
:103C7000AB07B0E809F0BB0B802DBF01FF279358BD
:103C80005F4F2AF09E3F510568F0C9C08CC15F3F6D
:103C9000ECF3983EDCF3869577956795B795F795A5
:103CA0009F5FC9F7880F911D9695879597F908959D
:103CB000E1E0660F771F881FBB1F62177307840739
:103CC000BA0720F0621B730B840BBA0BEE1F88F748
:103CD000E095089504D06894B11165C1089531D17B
:103CE00088F09F5790F0B92F9927B751A0F0D1F0E5
:103CF000660F771F881F991F1AF0BA95C9F712C06F
:103D0000B13081F04FD1B1E008954CC1672F782FC9
:103D10008827B85F39F0B93FCCF3869577956795DA
:103D2000B395D9F73EF490958095709561957F4F46
:103D30008F4F9F4F0895E89409C097FB3EF49095EC
:103D40008095709561957F4F8F4F9F4F9923A9F074
:103D5000F92F96E9BB279395F69587957795679503
:103D6000B795F111F8CFFAF4BB0F11F460FF1BC047
:103D70006F5F7F4F8F4F9F4F16C0882311F096E9DA
:103D800011C0772321F09EE8872F762F05C0662388
:103D900071F096E8862F70E060E02AF09A95660F41
:103DA000771F881FDAF7880F9695879597F90895FA
:103DB000E2D080F09F3740F491110EF0F4C060E043
:103DC00070E080E89FEB089526F41B16611D711DBD
:103DD000811D2BC045C0990F0008550FAA0BE0E8C4
:103DE000FEEF16161706E807F907C0F012161306BD
:103DF000E407F50798F0621B730B840B950B39F4FD
:103E00000A2661F0232B242B252B21F408950A2662
:103E100009F4A140A6958FEF811D811D089597F9A2
:103E20009F6780E870E060E00895882371F477234D
:103E300021F09850872B762F07C0662311F499271D
:103E40000DC09051862B70E060E02AF09A95660FC5
:103E5000771F881FDAF7880F9695879597F9089549
:103E60009F3F31F0915020F4879577956795B795EE
:103E7000880F911D9695879597F908959FEF80EC8F
:103E8000089500240A9416161706180609060895C0
:103E900000240A9412161306140605060895EECFA0
:103EA00050D0E8F3E894E0E0BB279F57F0F02AED0C
:103EB0003FE049EC06C0EE0FBB0F661F771F881F5F
:103EC00028F0B23A62077307840728F0B25A620BEF
:103ED000730B840BE3959A9572F7803830F49A95BA
:103EE000BB0F661F771F881FD2F79048BBCF092EE4
:103EF0000394000C11F4882352F0BB0F40F4BF2B45
:103F000011F460FF04C06F5F7F4F8F4F9F4F089584
:103F1000EF93E0FF06C0A2EA2AED3FE049EC5FEB39
:103F200017DEE5DF0F90039401FC9058E8E6F0E01F
:103F3000A3C057FD9058440F551F59F05F3F71F0D3
:103F40004795880F97FB991F61F09F3F79F0879500
:103F50000895121613061406551FF2CF4695F1DF89
:103F600008C0161617061806991FF1CF8695710519
:103F7000610508940895E5DFA0F0BEE7B91788F45D
:103F8000BB279F3860F41616B11D672F782F88273E
:103F9000985FF7CF869577956795B11D939596397C
:103FA000C8F30895E894BB2766277727CB0197F9D4
:103FB00008950BD09CCF65DF28F06ADF18F09523B9
:103FC00009F02DCF5BCF1124EECFB3DFA0F3959F87
:103FD000D1F3950F50E0551F629FF001729FBB27F0
:103FE000F00DB11D639FAA27F00DB11DAA1F649F9C
:103FF0006627B00DA11D661F829F2227B00DA11D4F
:10400000621F739FB00DA11D621F839FA00D611DD4
:10401000221F749F3327A00D611D231F849F600DF5
:10402000211D822F762F6A2F11249F5750408AF02E
:10403000E1F088234AF0EE0FFF1FBB1F661F771FBA
:10404000881F91505040A9F79E3F510570F0E7CE70
:10405000AACF5F3FECF3983EDCF3869577956795A2
:10406000B795F795E7959F5FC1F7FE2B880F911DD8
:104070009695879597F908959F938F937F936F9364
:10408000FF93EF939B01AC0194DFEF91FF9105D07B
:104090002F913F914F915F918CCFDF93CF931F93DF
:1040A0000F93FF92EF92DF927B018C01689405C021
:1040B000DA2EEF018ADFFE01E894A5912591359172
:1040C00045915591AEF3EF0143DDFE019701A80143
:1040D000DA9479F7DF90EF90FF900F911F91CF91D5
:1040E000DF9108950E94D520A59F900DB49F900D5B
:1040F000A49F800D911D11240895AA1BBB1B51E1A3
:1041000007C0AA1FBB1FA617B70710F0A61BB70B47
:10411000881F991F5A95A9F780959095BC01CD01EC
:104120000895A1E21A2EAA1BBB1BFD010DC0AA1FF8
:10413000BB1FEE1FFF1FA217B307E407F50720F010
:10414000A21BB30BE40BF50B661F771F881F991F8B
:104150001A9469F760957095809590959B01AC01D4
:10416000BD01CF010895052E97FB16F4009407D0EA
:1041700057FD0DD00E94912007FC09D07EF4909548
:104180008095709561957F4F8F4F9F4F0895509503
:104190004095309521953F4F4F4F5F4F0895EE0F5B
:1041A000FF1F0590F491E02D0994A29FB001B39FE9
:1041B000C001A39F01D0B29F700D811D1124911DDC
:1041C00008950F931F93CF93DF938230910510F4DE
:1041D00082E090E0E091D006F091D10620E030E05E
:1041E000C0E0D0E023C04081518148175907A8F0B2
:1041F0004817590761F482819381209719F09B83B6
:104200008A832EC09093D1068093D00629C02115B1
:10421000310529F04217530710F0A90102C0BE0171
:10422000DF0102811381EF019A01F8013097D9F67D
:104230002115310509F1281B390B2430310590F483
:1042400012968D919C9113976115710521F0FB01D8
:104250009383828304C09093D1068093D006FD019E
:10426000329644C0FD01E20FF31F819391932250D7
:1042700031092D933C933AC02091CE063091CF0660
:10428000232B41F420910201309103013093CF069A
:104290002093CE06209100013091010121153105B6
:1042A00041F42DB73EB74091040150910501241B04
:1042B000350BE091CE06F091CF06E217F307A0F49C
:1042C0002E1B3F0B2817390778F0AC014E5F5F4F6C
:1042D0002417350748F04E0F5F1F5093CF064093C9
:1042E000CE068193919302C0E0E0F0E0CF01DF9130
:1042F000CF911F910F910895EF92FF920F931F930B
:10430000CF93DF93009709F48EC0DC0112971396C8
:104310001C921E921297E090D006F090D106E11404
:10432000F10489F42D913C911197280F391F809148
:10433000CE069091CF068217930789F5B093CF06EA
:10434000A093CE0670C0E70120E030E001C0EA0192
:10435000CA17DB0738F44A815B819E01411551057C
:10436000B1F722C0AC0142505109FA01D383C28394
:1043700000811181BC01600F711F6C177D0761F412
:1043800068817981600F711F6E5F7F4F71836083D9
:104390006A817B81738362832115310529F4B0938F
:1043A000D106A093D0063FC0F901B383A283E901EF
:1043B00049915991C40FD51FAC17BD0771F4DC01A9
:1043C0009E918E91840F951F029691838083129601
:1043D0008D919C91139793838283A0E0B0E002C0FB
:1043E000D7017C01F701828193810097C9F7C7014A
:1043F000029620813181820F931F2091CE06309149
:10440000CF062817390779F4109729F41092D106AE
:104410001092D00604C013961C921E921297F0922E
:10442000CF06E092CE06CDB7DEB7E6E00C9485234A
:104430008F929F92AF92BF92CF92DF92EF92FF92B4
:10444000CF93DF93EC01688179818A819B8161152B
:1044500071058105910521F464E279ED8BE597E022
:104460002DE133EF41E050E00E94B32049015A01B1
:104470009B01AC01A7EAB1E40E9472206B017C01B0
:10448000ACEEB4EFA50194010E945823C60ED71ECE
:10449000E81EF91EF7FE06C081E0C81AD108E1083F
:1044A00080E8F80AC882D982EA82FB82E894F7F8A9
:1044B000B601C701DF91CF91FF90EF90DF90CF90D1
:1044C000BF90AF909F908F9008950E9418220895FA
:1044D00086E091E00E94182208956093060170938F
:1044E000070180930801909309010895A0E0B0E0CE
:1044F000ECE7F2E20C946323EC01009729F4CB0182
:104500000E94E120EC01B4C0DC01A60FB71FFC0142
:104510003297AE17BF0718F4C0E0D0E0A9C0008101
:10452000118106171707B0F00530110508F4A0C077
:10453000C80104978617970708F49AC0025011091A
:10454000061B170B0D931D9371836083CD010E9491
:104550007C218EC06B01C01AD10A7C01E00EF11ED5
:10456000E091D006F091D10620E030E080E090E0CC
:1045700048C0EE15FF05D1F580809180540142E0DE
:10458000A40EB11CAC14BD0488F17401EC18FD0834
:10459000670122E0C20ED11C9E012250310945E084
:1045A000C416D10478F04281538113965C934E93E4
:1045B00012971196FC92EE92F901718360833A2F63
:1045C0002B2F09C00E5F1F4F080D191DD9010D9328
:1045D0001C9332812381009721F0FC0132832383D5
:1045E00047C03093D0062093D10642C0808191818C
:1045F0002817390708F49C0152814381CF01E52F28
:10460000F42F309709F0B5CF8091CE069091CF0668
:104610008E159F05F1F426173707D8F48091000115
:1046200090910101009741F48DB79EB7209104014C
:1046300030910501821B930BA817B90708F06CCFC6
:10464000B093CF06A093CE06FE01329771836083AC
:104650000FC0CB010E94E1207C01009709F45CCFE0
:10466000A801BE010E943E23CE010E947C21E701E9
:10467000CE01CDB7DEB7ECE00C947F23FB01DC016B
:1046800002C001900D9241505040D8F70895DC01CE
:1046900001C06D9341505040E0F70895FB01DC01EB
:1046A00001900D920020E1F70895B7FF0C9472205D
:1046B0000E947220821B930B08952F923F924F927B
:1046C0005F926F927F928F929F92AF92BF92CF92A2
:1046D000DF92EF92FF920F931F93CF93DF93CDB7AB
:1046E000DEB7CA1BDB0B0FB6F894DEBF0FBECDBF23
:1046F00009942A88398848885F846E847D848C84F4
:104700009B84AA84B984C884DF80EE80FD800C81FC
:104710001B81AA81B981CE0FD11D0FB6F894DEBFDF
:104720000FBECDBFED01089511E1CCE0D1E104C091
:10473000FE010E94D1202296CE30D107C9F7F8940D
:02474000FFCFA9
:104742000000D2062000010000000100010001006B
:104752000100010000000000000000000000000055
:104762000000000000000000000000000000000047
:104772000000000000000000000000000000000037
:1047820000000000D0077A007A007A007A007A00EE
:104792000000000000000000000000000000000017
:1047A2000000000000000000000000000000000007
:1047B20000000000000000000000000000000000F7
:1047C2007A007A007A007A007A0000000000000085
:1047D20000000000000000000000000000000000D7
:1047E20000000000000000000000000000000000C7
:1047F20000000000000000000000000001000200B4
:10480200030004000000000000000000000000009F
:104812000000000000000000000000000000000096
:104822000000000000000000000000000000000086
:10483200000000002C01020001000400000005003D
:104842000000000000000000000000000000000066
:104852000000000000000000000000000000000056
:104862000000000000000000000000000000000046
:104872006C0700004040860087058D0B830CA10F5A
:10488200FF0F6510000000000000000000000000A3
:10489200000000000000000000000000E0F8FCFE44
:1048A200FFFFFFFFFFFFFF0F0707060600808000E4
:1048B20000000000000000000000000000000000F6
:1048C20000000000000000000000000000000000E6
:1048D20000000000000080808080808081070F3F00
:1048E2003FFFFFFFFFFFFFFFFEFEFCFCFCFEFFFFA2
:1048F200FFFCF8E0000000000000000000000000E3
:1049020000000000000000000000000000000000A5
:10491200000000FCFEFFFFFFFFFFFFF1E0E0E0E030
:10492200E0F0FDFFFFFFFFFFFFFFFFFFFFFFFFFFC5
:10493200FFFFFFFF00000000000000000000000079
:104942000000000000000000000000000000000065
:10495200000000FFFFFFFFFFFFFFFFFFFFFFFFFF62
:10496200FFFFFFFFFFFFFFFFFFFFFFFFFFFFFF7FD5
:104972003F1F0701000000000000000000000000CF
:104982000000000000000000000000000000000025
:10499200000000FFFFFFFFFFFFFFFFFF7F3F1F1F22
:1049A2000F0F0F0F0F0F0F0F070707030301000071
:1049B20000000000000000000000000000000000F5
:1049C20000000000000000000000000000000000E5
:1049D200000000FF7F3F1F0F0703010000000000DF
:1049E20000000000000000000000000000000000C5
:1049F20000000000000000000000000000000000B5
:104A020000000000746F74616C31200041000000EE
:104A12000000A712F018000000007B1AF018161A06
:064A2200451A291A691A69
:00000001FF
