:100000000C9487080C94AF080C94AF080C94AF08BC
:100010000C94AF080C94AF080C94AF080C94AF0884
:100020000C94AF080C94AF080C94AF080C94AF0874
:100030000C94AF080C94AF080C94AF080C94AF0864
:100040000C945F160C94AF080C94A3180C94DF1852
:100050000C94AF080C94AF080C94AF080C94AF0844
:100060000C94AF080C94AF0805A84CCDB2D44EB98F
:100070003836A9020C50B9918688083CA6AAAA2A4B
:10008000BE000000803F050800FF0C4B0000000090
:10009000003E5B4F5B3E3E6B4F6B3E1C3E7C3E1C0E
:1000A000183C7E3C181C577D571C1C5E7F5E1C0054
:1000B000183C1800FFE7C3E7FF0018241800FFE70B
:1000C000DBE7FF30483A060E2629792926407F05CE
:1000D0000507407F05253F5A3CE73C5A7F3E1C1CE4
:1000E00008081C1C3E7F14227F22145F5F005F5FA4
:1000F00006097F017F006689956A60606060609490
:10010000A2FFA29408047E040810207E2010080894
:100110002A1C08081C2A08081E101010100C1E0C9F
:100120001E0C30383E3830060E3E0E060000000031
:100130000000005F00000007000700147F147F1418
:10014000242A7F2A1223130864623649562050005D
:1001500008070300001C2241000041221C002A1C49
:100160007F1C2A08083E0808008070300008080834
:100170000808000060600020100804023E51494554
:100180003E00427F400072494949462141494D3372
:100190001814127F1027454545393C4A49493141D9
:1001A000211109073649494936464949291E0000A7
:1001B00014000000403400000008142241141414FC
:1001C0001414004122140802015909063E415D59E8
:1001D0004E7C1211127C7F494949363E41414122F1
:1001E0007F4141413E7F494949417F090909013E1B
:1001F000414151737F0808087F00417F4100204042
:10020000413F017F081422417F404040407F021C53
:10021000027F7F0408107F3E4141413E7F0909096A
:10022000063E4151215E7F09192946264949493236
:1002300003017F01033F4040403F1F2040201F3FFC
:100240004038403F63140814630304780403615981
:10025000494D43007F4141410204081020004141C3
:10026000417F04020102044040404040000307086F
:100270000020545478407F2844443838444444286B
:10028000384444287F385454541800087E09021812
:10029000A4A49C787F0804047800447D400020409A
:1002A000403D007F1028440000417F40007C0478DE
:1002B00004787C080404783844444438FC18242426
:1002C0001818242418FC7C080404084854545424A6
:1002D00004043F44243C4040207C1C2040201C3C23
:1002E0004030403C44281028444C9090907C44641A
:1002F000544C4400083641000000770000004136AD
:10030000080002010204023C2623263C1EA1A16132
:10031000123A4040207A3854545559215555794164
:100320002154547841215554784020545579400C3B
:100330001E5272123955555559395454545939551C
:100340005454580000457C410002457D420001455F
:100350007C40F0292429F0F0282528F07C545545CC
:10036000002054547C547C0A097F4932494949325F
:100370003248484832324A4848303A4141217A3A74
:1003800042402078009DA0A07D39444444393D403E
:1003900040403D3C24FF2424487E4943662B2FFCEB
:1003A0002F2BFF0929F620C0887E09032054547999
:1003B000410000447D413048484A32384040227A6A
:1003C000007A0A0A727D0D19317D2629292F2826E7
:1003D0002929292630484D402038080808080808EF
:1003E0000808382F10C8ACBA2F102834FA00007B48
:1003F000000008142A142222142A1408AA00550006
:10040000AAAA55AA55AA000000FF00101010FF006C
:10041000141414FF001010FF00FF1010F010F0145F
:100420001414FC001414F700FF0000FF00FF141464
:10043000F404FC141417101F10101F101F141414B0
:100440001F00101010F0000000001F101010101FEF
:1004500010101010F010000000FF101010101010FD
:10046000101010FF10000000FF140000FF00FF003C
:10047000001F10170000FC04F414141710171414B4
:10048000F404F40000FF00F714141414141414F707
:1004900000F7141414171410101F101F141414F460
:1004A000141010F010F000001F101F0000001F14A7
:1004B000000000FC140000F010F01010FF10FF14FA
:1004C0001414FF141010101F00000000F010FFFFA4
:1004D000FFFFFFF0F0F0F0F0FFFFFF000000000072
:1004E000FFFF0F0F0F0F0F38444438447C2A2A3E79
:1004F000147E02020606027E027E026355494163B3
:100500003844443C04407E201E2006027E020299AC
:10051000A5E7A5991C2A492A1C4C7201724C304A45
:100520004D4D303048784830BC625A463D3E4949CE
:1005300049007E0101017E2A2A2A2A2A44445F4476
:100540004440514A444040444A51400000FF0103A6
:10055000E080FF000008086B6B0836123624360670
:100560000F090F060000181800000010100030409E
:10057000FF0101001F01011E00191D1712003C3C64
:100580003C3C000000000008102060023800000021
:100590000000000000000000FE0000000000000E4F
:1005A000000E00000000D0BE90D0BE9000001C6283
:1005B000FFC28000000C12924CB0880600807C6262
:1005C000B21CC0000000000E0E0000000000E01889
:1005D00004020200000002020418E00000002418D7
:1005E0007E18240000808080F08080800000000061
:1005F00000000000000080808080000000000000FB
:1006000000000000000000806018060000F804C22E
:10061000320CF80000000404FE000000000002821A
:1006200042221C00000002222222DC0000C0A0980E
:1006300084FE808000001E121222C20000F84422B4
:100640002222C00000000202C2320A0600008C52C0
:1006500022528C00003C42424226F800000000304A
:1006600030000000000000303000000000808040BA
:10067000402020100040404040404000001020201A
:10068000404080800000028242221C0000000000E6
:100690000000000000000000050000000000000055
:1006A0000000000000000700000700000000040434
:1006B0000F04030000040201030404030003040404
:1006C0000405030400000000000000000000030611
:1006D00008101000000010100806030000000000C1
:1006E00000000000000000000700000000000016ED
:1006F0000E000000000000000000000000000006E6
:1007000006000000000402010000000000010304D4
:1007100004020100000004040704040000000704B0
:1007200004040400000004040404030000000000AA
:100730000007000000000404040403000001020498
:100740000404030000000007000000000000030490
:100750000404030000000404040201000000000679
:1007600006000000000000160E000000000000015E
:100770000102020400010101010101000004020262
:1007800001010000000000050000000000F80472F4
:100790008AFA84780000C0380638C0000000FE22C3
:1007A0002222DC0000F804020202020000FE020223
:1007B0000204F8000000FE22222222000000FE2295
:1007C0002222220000F804020222E20000FE202081
:1007D0002020FE0000000202FE02020000000000D5
:1007E0000202FE0000FE40B0080402000000FE000D
:1007F0000000000000FE0C7080700CFE00FE0C304B
:10080000C000FE0000F804020204F80000FE4242AC
:1008100042221C0000F804020204F8000000FE421C
:1008200042A21C0000001C22424280000002020280
:10083000FE02020200FE00000000FE00000638C0BA
:1008400000C03806003EC0F00EF0C03E0000069822
:100850006098060000000618E0180600000202C2B8
:10086000320A0600000000FE020202020000061822
:10087000608000000002020202FE00000040300C16
:100880000C304000000000000000000000010204E5
:100890000404000000060101010101060000070434
:1008A000040403000001020404040400000704041B
:1008B0000402010000000704040404000000070013
:1008C000000000000001020404040700000700000B
:1008D00000000700000004040704040000000404F2
:1008E00004040300000700000102040000000704E4
:1008F00004040400000700000100000700070000D6
:1009000000030700000102040402010000070000C8
:1009100000000000000102040C121110000007008A
:1009200000010600000004040404030000000000AD
:100930000700000000030404040403000000000199
:10094000060100000000070000000700000006018B
:10095000000106000000000007000000000605047A
:10096000040404000000001F10101010000000001C
:100970000001020400101010101F00000000000011
:100980000000000000080808080808000000000235
:10099000040000000000E0101010F0000000FE2035
:1009A0001010E0000000E010101010000000E01037
:1009B0001010FE000000E0909090E000000020FC8D
:1009C000222222020000E0101010F0000000FE20A1
:1009D0001010E000001010F20000000000001010E5
:1009E00010F200000000FE80402010000000020213
:1009F000FE00000000F02010F02010F00000F020B9
:100A00001010E0000000E0101010E0000000F020E6
:100A10001010E0000000E0101010F0000000F020C6
:100A200010107000000060909090200000002020C6
:100A3000FC2020200000F0000000F000000070808A
:100A40000080700000F000C030C000F0000030C036
:100A5000C0300000000030C00080700000001010A6
:100A600090503000000080807E02020000000000F4
:100A7000FE000000000002027E80800000008080F6
:100A800000000080000000000000000000000000E6
:100A90000000000000000304040207000000070437
:100AA0000404030000000304040404000000030421
:100AB000040207000000030404040400000000070F
:100AC000000000000000332424221F000000070063
:100AD00000000700000000070404000000202020A0
:100AE000201F0000000007000102040000000000B9
:100AF00007040400000700000700000700000700CB
:100B000000000700000003040404030000003F0489
:100B1000040403000000030404023F000000070077
:100B200000000000000002040404030000000000B4
:100B3000030404040000030404020700000000038F
:100B40000403000000010601000106010000060187
:100B500001060000002020310E0300000000060501
:100B600004040400000000001F101000000000003A
:100B700007000000000010101F000000000100002E
:100B8000010101000000000000000000000A102E1A
:100B90000C01140000000000000000000000000034
:100BA0000000000000000078FC020303030302FCC5
:100BB000780000000000000000FF7E000002838338
:100BC000838302FC780000028383838302FC787EA7
:100BD000FF008080808000FF7E78FC028383838317
:100BE00002000078FC02838383830200000002037A
:100BF0000303030302FC7878FC028383838302FCF3
:100C00007878FC028383838302FC7800000060F024
:100C1000F060000000000000000000000000001E66
:100C20003F40C0C0C0C0403F1E00000000000000A8
:100C300000FF7E1C3E41C1C1C1C141000000004116
:100C4000C1C1C1C1413E1C0000010101010101FF00
:100C50007E000041C1C1C1C1413E1C1C3E41C1C119
:100C6000C1C1413E1C0000000000000000FF7E1CCE
:100C70003E41C1C1C1C1413E1C000041C1C1C1C111
:100C8000413E1C0C30300B012000C0F87C3E3EFC85
:100C9000F8C0000000000080E078FEFE00000000C8
:100CA0000000F07C3C3E3EFEFCE0000000007C3E8C
:100CB0003E3EFEF8C0000000000000000000F8FE0C
:100CC000FE0000000000FEFE3E3E3E3E3E000000F4
:100CD00000000080F0FC3E3E3EFC000000003E3E76
:100CE0003E3E3E3E3EFEFE00000000C0F8FE3E7E60
:100CF000FCE00000000000E0FC7E3EFEF8C00000CA
:100D00000000000000C0E0C00000000000F0FF0F85
:100D1000000000F9FFFFF000000000070300FFFFE4
:100D2000000000000000010000000000FFFF0000C4
:100D300000000000000000FFFF00000000000000B5
:100D4000E0FF1FFFFF0000000000FFFF00000000A9
:100D5000000000000000E0FF3F0000000000000075
:100D600000000000000000C0FC7F0300000000FF46
:100D7000FF000000FFFF00000000FEFF0300000076
:100D8000FFFFF00000000000003F7F3F0000000078
:100D900000FFFF0000E0FF1F00FFFF000000000059
:100DA0000000FFFF00000000000000000000E0FE67
:100DB0001F010000000000F8F8FCFFC70000000061
:100DC0000000C0FE3F0300FFFF00000000003F3FA7
:100DD0003E7EFCF8E00000000000FFFF80F07C7C1D
:100DE000F8F00000000000000080F8FF070000009D
:100DF000000000019FFFF8FE1F0100000000FFFF40
:100E0000C0000080FFFFFF000000000000000000A5
:100E10000000000000FFFFC0FC7F030000FFFF0098
:100E2000000000000000FFFF0000000000000000C4
:100E3000E0FE0F0100000000000000000000010FB4
:100E4000FFF8000000F8FFE7E0E0E0FFFFE0E0E08F
:100E50000000000000000007FFFE00000000FFFF90
:100E6000FF03000001FFFF0000000000F0FF0F0083
:100E7000000000000000C0FC3F03031FFFFCC00097
:100E80000000000F1F3E3E0F01FFFF0000000000AA
:100E900000008000000000000007FFFF07000000C6
:100EA000FCFF0700000000000000FFFF0000000042
:100EB0000000E0FE0F000000000000000000000045
:100EC000000000C0FF7F000000030303030303FFD3
:100ED000FF03030300000000000000C0FF7F0000CC
:100EE00000000FFFFF80000080FF7F00000000FE79
:100EF000FF030000000000000000FFFF8000000072
:100F000080FFFF000000000000000080FCFF0700E1
:100F10000000000000FFFFFF000000000000031FB2
:100F20003F7C7C3F1F0300000000007C7C7C7F7FB7
:100F30007C7C7C0000007F7F7C7C7C7C7C7C000057
:100F400000003F7E7C7C7E1F070000000000000048
:100F50000000007F7F00000000001F3E7C7C3E1FE1
:100F600007000000000000031F7F7C7C3F0700009B
:100F70000000007F7F000000000000000000011F53
:100F80003F7E7C7E3F1F01000000003E7C7C7E3F58
:100F90000F01000000000000000001000000000040
:100FA0000016103002002CFCFCC0C0F3F33C3CF0F7
:100FB000F0F0F0F0F03C3CF3F3C0C0FCFC0000C0EB
:100FC000C0F3F33C3CF0F0F0F0F0F03C3CF3F3C045
:100FD000C000000303CFCF3F3F0F0F0F0F0F0F0FC6
:100FE0000F0F0F3F3FCFCF03033F3F03033F3FCFE1
:100FF000CFCFCF0F0FCFCFCFCF3F3F03033F3F1810
:101000001030020030F0F0FCFCFCFC3C3C3F3FFFA9
:10101000FFFFFF3F3F3C3CFCFCFCFCF0F0F0F0FC31
:10102000FCFCFC3C3C3F3FFFFFFFFF3F3F3C3CFCE8
:10103000FCFCFCF0F0C3C3C3C333333F3F0F0F339B
:101040003333330F0F3F3F3333C3C3C3C3030333C0
:1010500033FFFFCFCF0F0F333333330F0FCFCFFF1C
:10106000FF33330303101030020020C0C0F0F03C07
:101070003CFFFFFFFF3C3CF0F0C0C0C0C0F0F03CC4
:101080003CFFFFFFFF3C3CF0F0C0C0C3C33333CF95
:10109000CF33333333CFCF3333C3C33333CFCF0324
:1010A000030F0F0F0F0303CFCF33330000000700F0
:1010B000020100000304060000000000000000011F
:1010C00002040810204080010204081020010204DC
:1010D00008102004040404040404040202020202AE
:1010E000020303030303030000000023002600297A
:1010F0000000000000250028002B00000000002454
:101100000027002A0000A9106D149A19A6111124B5
:101110001FBECFEFD8E0DEBFCDBF13E0A0E0B1E04F
:10112000E4E2F3E402C005900D92AC3DB107D9F7BB
:1011300016E0ACEDB3E001C01D92A73CB107E1F7AA
:1011400011E1CCE0D1E104C02297FE010E94C21E51
:10115000C630D107C9F70E94C21A0C9485210C949D
:101160000000880F991FFC01E058FE4F71836083D7
:10117000FC01E955FB4F51834083FC01E359FB4FD0
:1011800031832083FC01EA5BFE4F71836083FC01A5
:10119000ED5CFB4F51834083FC01E750FC4F3183F2
:1011A000208308958F929F92AF92BF92CF92DF9249
:1011B000EF92FF920F931F93CF93DF936B015A012E
:1011C0004901EC0109C09801A401B501C7018C1BBC
:1011D0009D0B0E94B1082196CC15DD05A4F3DF918B
:1011E000CF911F910F91FF90EF90DF90CF90BF9024
:1011F000AF909F908F9008958F929F92AF92BF92E1
:10120000CF92DF92EF92FF920F931F93CF93DF93D2
:101210006B015A014901EC0109C09801A401B50113
:10122000CE018E0D9F1D0E94B1082196CC15DD05C3
:10123000A4F3DF91CF911F910F91FF90EF90DF907A
:10124000CF90BF90AF909F908F9008958F929F9274
:10125000AF92BF92CF92DF92EF92FF920F931F93C4
:10126000CF93DF934B016A015901CCE0D0E0C81B5A
:10127000D90B7C011EC09801A501B601C7010E94CF
:10128000B1089801A501B601CE010E94B1089801EC
:10129000A501B601CE010C960E94B1089801A501E6
:1012A000B601C7010D960E94B1088FEFE81AF80A3F
:1012B0002197E814F904FCF2DF91CF911F910F916F
:1012C000FF90EF90DF90CF90BF90AF909F908F9066
:1012D00008958F929F92AF92BF92CF92DF92EF923A
:1012E000FF920F931F93CF93DF934B016A01590134
:1012F000CCE0D0E0C81BD90B7C011EC09801A50131
:10130000B601C7010E94B1089801A501B601CE013E
:101310000E94B1089801A501B601CE010C960E9469
:10132000B1089801A501B601C7010D960E94B10848
:101330008FEFE81AF80A2197E814F904FCF2DF911C
:10134000CF911F910F91FF90EF90DF90CF90BF90C2
:10135000AF909F908F9008952F923F924F925F92FF
:101360006F927F928F929F92AF92BF92CF92DF92B5
:10137000EF92FF920F931F93CF93DF9300D000D093
:1013800000D0CDB7DEB769837A836A015901FC8248
:10139000EB8278019801220F331F280F391F3E83FB
:1013A0002D831B01E49E4001E59E900CF49E900C61
:1013B0001124860E971E00E010E02A01662457FCD7
:1013C0006094762C33C031E0A316B10441F4C80117
:1013D000880D991DED81FE81918380831CC0F2E010
:1013E000AF16B10439F42981ED81FE8120833A8161
:1013F000318311C083E0A816B10469F4A3019201FE
:1014000060E070E0CB010E94A41A620D731DED81B3
:10141000FE8171836083FFEFEF1AFF0A0C0D1D1D23
:101420002D813E812E5F3F4F3E832D838B819C819A
:10143000E816F90640F226960FB6F894DEBF0FBE06
:10144000CDBFDF91CF911F910F91FF90EF90DF9073
:10145000CF90BF90AF909F908F907F906F905F9054
:101460004F903F902F9008952F923F924F925F920E
:101470006F927F928F929F92AF92BF92CF92DF92A4
:10148000EF92FF920F931F93CF93DF93CDB7DEB709
:10149000A0970FB6F894DEBF0FBECDBF0E94A9166D
:1014A000609363057093640580936505909366056A
:1014B0000E94A9168CE196E00E940718892B09F476
:1014C0009AC18CE196E00E94841B6B017C018CE147
:1014D00096E00E94841B4B015C018CE196E00E9427
:1014E000841B2B013C018CE196E00E94841B9B0134
:1014F000AC018CE196E02D8F3E8F4F8F58A30E9458
:10150000841B69837A838B839C838CE196E00E94A1
:10151000841B6D837E838F8398878CE196E00E9485
:10152000841B69877A878B879C878CE196E00E9471
:1015300036182D8D3E8D4F8D58A10A9709F05BC14D
:10154000988A8F86120189018D819E819E878D8761
:1015500095E0C916D10409F4C0C0CCF4B2E0CB16B2
:10156000D10409F499C044F4C114D10461F1CA94BE
:10157000CD2809F040C14AC083E0C816D10409F45F
:1015800095C094E0C916D10409F035C19BC0A8E00C
:10159000CA16D10409F40BC15CF4E6E0CE16D104FE
:1015A00009F4C3C0F7E0CF16D10409F024C1F5C097
:1015B00089E0C816D10409F406C194E6C916D1041D
:1015C00009F019C10CC11092E6030E94A91660939C
:1015D000F5037093F6038093F7039093F803E6E422
:1015E000F1E083E394E049EF53E0AF84B888A1923F
:1015F000B192DC012D923D92CD01DA010D931D9344
:10160000AD01B1E0E038FB0781F7F5C081E08093E0
:10161000E6030E94A9166093F5037093F603809386
:10162000F7039093F80349815A81CA01880F991FE3
:1016300076E4C72E71E0D72EC80ED91EDC01AD5C52
:10164000BB4FE9EFEE2EE3E0FE2EE80EF91E80E040
:1016500090E020E030E017C0B601680F791FAF843A
:10166000B888FB01B182A082BD01680F791FFB0120
:1016700031822082B701680F791FFB01118300833B
:101680002F5F3F4F0296B901640F751FAD84BE8472
:101690006A157B050CF3AFC04DE1E42EF12C00E0A0
:1016A00010E0A201B4018FEE94E009C09DE1E92EA3
:1016B000F12C00E010E0A201B40186EF91E00E945D
:1016C000AC0999C02F85388981E0232B19F48093C8
:1016D000E80391C08093E7038EC01092E60381E097
:1016E0008093E3032D8F3E8F4F8F58A30E94A9163E
:1016F0006093E9037093EA038093EB039093EC0308
:1017000089819A819093F5018093F4019092E60487
:101710008092E5042D8D3E8D3093E4042093E30404
:101720005092E2044092E10466C081E08093E603B7
:101730008093E3032D8F3E8F4F8F58A30E94A916ED
:101740006093F5037093F6038093F7039093F80387
:101750000E94A9166093E9037093EA038093EB0358
:101760009093EC03A981BA81B093F501A093F401A1
:101770009092E6048092E5042D8D3E8D3093E40432
:101780002093E3045092E2044092E104ED81FE8153
:10179000F0934501E09344012EC089019201A40118
:1017A0006D817E8189819A810E94690924C0E984C2
:1017B000FA8489019201A4016D817E8189819A81D7
:1017C0000E94FC0818C0E984FA8489019201A401EE
:1017D0006D817E8189819A810E94D2080CC090928D
:1017E000EE048092ED043093EC042093EB045092CD
:1017F000EA044092E9040E94A9160091F1031091B5
:10180000F2032091F3033091F403601B710B820B00
:10181000930B693E734081059105E0F08091E503EB
:101820008130C1F4E6E4F1E043E354E069EF73E0B2
:101830008AE590E011921192DA011D921D92AD019C
:10184000DB018D939D93BD01B1E0E038FB0791F77B
:101850001092E6030E94A9160091ED031091EE0389
:101860002091EF033091F003601B710B820B930BFF
:10187000693E734081059105E0F08091E403813079
:10188000C1F4E6E4F1E043E354E069EF73E08AE594
:1018900090E011921192DA011D921D92AD01DB01CF
:1018A0008D939D93BD01B1E0E038FB0791F7109255
:1018B000E6030E94A9160091F5031091F60320910A
:1018C000F7033091F803601B710B820B930B0091AF
:1018D000440110914501222717FD2095322F06174C
:1018E000170728073907E0F48091E6038130C1F437
:1018F000E6E4F1E043E354E069EF73E08AE590E069
:1019000011921192DA011D921D92AD01DB018D93AE
:101910009D93BD01B1E0E038FB0791F71092E6031B
:101920000E94A9160091E9031091EA032091EB03AC
:101930003091EC03601B710B820B930B0091F4014F
:101940001091F501222717FD2095322F0617170752
:101950002807390788F48091E303813069F4C9C20C
:101960001092E3031092E8041092E70405C0019678
:101970009093E8048093E7048091E803882361F161
:101980008091F9039091FA038436910514F401963D
:101990002FC01092E803E0E8F1E0FA87E98729E236
:1019A00035E03E8B2D8B8AE091E09C8B8B8BA7EAF8
:1019B000B4E0BE83AD83EDE6F4E0FA83E9832FEE75
:1019C00034E03E872D8786EF91E0988F8F8B00E083
:1019D00010E0212C312C84C28091E7038823D9F2B6
:1019E0008091F9039091FA031816190634F40197BF
:1019F0009093FA038093F903CECF1092E703CBCFF5
:101A0000A985BA856D917C91882777FD8095982F5F
:101A10000E948E1C2B013C01ED89FE890190F08112
:101A2000E02DFA8FE98FAF89B88D8D919D91B88F98
:101A3000AF8BECE2F1E08E9FB0018F9F700D9E9F07
:101A4000700D1124882777FD8095982FC09063052D
:101A5000D0906405E0906505F09066056C197D09ED
:101A60008E099F090E948E1C6B017C01A98CBA8C87
:101A7000B501882777FD8095982F0E948E1C9B01C9
:101A8000AC016BED7FE089EC90E40E94F31BA701B1
:101A900096010E94CA1D0E94F01B4B015C019B0134
:101AA000AC01C301B2010E94CA1D9B01AC01C3017C
:101AB000B2010E94881B0E94C91C20E030E0A901ED
:101AC0000E94EC1B811166C0AD81BE816D917C913D
:101AD000882777FD8095982F0E948E1C2B013C0152
:101AE000A50194010E94CA1D9B01AC01C301B20172
:101AF0000E94881B0E94C91C20E030E0A9010E94BE
:101B0000EC1B811147C0E981FA81608171818827CE
:101B100077FD8095982F0E948E1C2B013C01A5011A
:101B200094010E94CA1D9B01AC01C301B2010E9435
:101B3000881B0E94C91C20E030E0A9010E94EC1B18
:101B4000811128C0F801EA5BFE4F80819181A9854F
:101B5000BA858D939C93F801ED5CFB4F8081918158
:101B6000ED81FE8191838083F801E750FC4F8081F5
:101B70009181A981BA818D939C93ED85FE858081A9
:101B80009181A98CBA8CA816B90621F0AB89BC89C1
:101B90001D921C92ED85FE850190F081E02DF88B61
:101BA000EF87A98CBA8CAE16BF0609F4A6C0A9852A
:101BB000BA856D917C91882777FD8095982F0E943A
:101BC0008E1C2B013C01AF84B888B501882777FDB6
:101BD0008095982F0E948E1C9B01AC016BED7FE0DD
:101BE00089EC90E40E94F31BA70196010E94CA1D94
:101BF0000E94F01B9B01AC01C301B2010E94CA1DEF
:101C00009B01AC01C301B2010E94881B0E94C91C48
:101C100020E030E0A9010E94EC1B81116EC0AD8173
:101C2000BE816D917C91882777FD8095982F0E94C9
:101C30008E1C4B015C01F801E654FE4F0190F081CF
:101C4000E02DEE0FFF1FE151FB4F6081718188276E
:101C500077FD8095982F0E948E1C9B01AC016BED47
:101C60007FE089EC90E40E94F31BA70196010E949B
:101C7000CA1D0E94F01B2B013C019B01AC01C50158
:101C8000B4010E94CA1D9B01AC01C501B4010E94B0
:101C9000881B0E94C91C20E030E0A9010E94EC1BB7
:101CA00081112BC0E981FA8160817181882777FDDC
:101CB0008095982F0E948E1C4B015C01A30192011C
:101CC0000E94CA1D9B01AC01C501B4010E94881B82
:101CD0000E94C91C20E030E0A9010E94EC1B811188
:101CE0000CC0AF84B888AD89BE89AD92BC92E1E0EA
:101CF000F0E0AB89BC89ED93FC93A985BA856D9121
:101D00007D91BA87A987882777FD8095982F0E94B3
:101D10008E1C2B013C01ED89FE8961917191FE8B36
:101D2000ED8B882777FD8095982F0E948E1C9B0154
:101D3000AC016BED7FE089EC90E40E94F31BA701FE
:101D400096010E94CA1D0E94F01B4B015C019B0181
:101D5000AC01C301B2010E94CA1D9B01AC01C301C9
:101D6000B2010E94881B0E94C91C6F87788B898BE7
:101D70009A8BAB89BC896D917D91BC8BAB8B88278D
:101D800077FD8095982F0E948E1C6B017C01ED8160
:101D9000FE8161917191FE83ED83882777FD8095A7
:101DA000982F0E948E1C2B013C01A50194010E94DA
:101DB000CA1D9B01AC01C301B2010E94881B0E9495
:101DC000C91C698F7A8F8B8F9C8FA981BA816D9185
:101DD0007D91BA83A983882777FD8095982F0E94EB
:101DE0008E1C2B013C01A50194010E94CA1D9B0180
:101DF000AC01C301B2010E94881B0E94C91C2B01C7
:101E00003C016091E9047091EA04882777FD809590
:101E1000982F0E948E1C4B015C01A7019601C30103
:101E2000B2010E94CA1D9B01AC01C501B4010E9410
:101E3000881B0E945B1C762E6091EB047091EC0471
:101E4000882777FD8095982F0E948E1C4B015C019E
:101E5000A7019601698D7A8D8B8D9C8D0E94CA1D7C
:101E60009B01AC01C501B4010E94881B0E945B1C50
:101E7000662E6091ED047091EE04882777FD8095C1
:101E8000982F0E948E1C4B015C01A70196016F8563
:101E9000788989899A890E94CA1D9B01AC01C50174
:101EA000B4010E94881B0E945B1C262F472D662DC3
:101EB000822F0E94D0159B01AC01B10183ED95E00A
:101EC0000E949F1583ED95E00E94DE14BFEF2B1A50
:101ED0003B0A0E5F1F4FED85FE853296FE87ED872C
:101EE00083ED95E00E94DD152816390608F488CDAB
:101EF00028C08091E7049091E8040091E1041091DA
:101F0000E2042091E3043091E4044091E50450910F
:101F1000E604BC016F5F7F4F0E9426090E94A9164C
:101F20006093E9037093EA038093EB039093EC03CF
:101F30008091E7049091E804863091050CF010CD73
:101F400016CDA0960FB6F894DEBF0FBECDBFDF91C1
:101F5000CF911F910F91FF90EF90DF90CF90BF90A6
:101F6000AF909F908F907F906F905F904F903F9039
:101F70002F900895EF92FF920F931F9340E855E240
:101F800060E070E08CE196E00E941A1983ED95E024
:101F90000E94D11483ED95E00E94DE1440ED57E0DD
:101FA00060E070E086EE95E00E94591684E096E0CD
:101FB0000E94051461E084E096E00E94E81384E04A
:101FC00096E00E948813E9E2F5E088EE93E08193C1
:101FD000919325E0E336F207D1F7EFEEF4E088EED7
:101FE00093E08193919325E0E932F207D1F7E0E89D
:101FF000F1E01192119281E0EA3BF807D1F7E7EAAC
:10200000F4E01192119224E0E13EF207D1F7EDE6FF
:10201000F4E08AE590E08193919324E0E73AF207B7
:10202000D1F7E6E4F1E01192119281E0E038F8078F
:10203000D1F7E3E3F4E01192119224E0ED36F207D8
:10204000D1F7E9EFF3E08AE590E08193919324E002
:10205000E333F207D1F7EAE0F1E081E090E0819329
:10206000919321E0E434F207D1F7FDE1EF2EF12C5A
:1020700000E010E023E030E04AE050E060E070E093
:1020800086EF91E00E94AC091092B3011092B20168
:102090001092B5011092B4011092B7011092B601DE
:1020A0001092B9011092B8011092DA041092D9047A
:1020B0001092DC041092DB041092DE041092DD0416
:1020C0001092E0041092DF041092A00410929F047A
:1020D0001092A2041092A1041092A4041092A304DE
:1020E0001092A6041092A504109279011092780122
:1020F00010927B0110927A0110927D0110927C0166
:1021000010927F0110927E01109266041092650475
:10211000109268041092670410926A041092690485
:1021200010926C0410926B0410922C0410922B04E9
:1021300010922E0410922D041092300410922F044D
:1021400010923204109231041F910F91FF90EF9082
:10215000089543E062E086EE95E00E94E11523E0F9
:1021600046E06DE170E083ED95E00E947814809187
:10217000300290913102A0913202B0913302AC0151
:10218000BD0170584093B3055093B4056093B505F5
:102190007093B6058093B7059093B805A093B905E1
:1021A000B093BA058093BB059093BC05A093BD0581
:1021B000B093BE054093BF055093C0056093C10521
:1021C0007093C2054093C3055093C4056093C50541
:1021D0007093C6058093C7059093C805A093C90561
:1021E000B093CA058093CB059093CC05A093CD0501
:1021F000B093CE054093CF055093D0056093D105A1
:102200007093D20540939305509394056093950580
:1022100070939605409397055093980560939905A0
:1022200070939A0580939B0590939C05A0939D05C0
:10223000B0939E0580939F059093A005A093A10560
:10224000B093A2054093A3055093A4056093A50500
:102250007093A6054093A7055093A8056093A90520
:102260007093AA058093AB059093AC05A093AD0540
:10227000B093AE058093AF059093B005A093B105E0
:10228000B093B20540937305509374056093750540
:1022900070937605409377055093780560937905A0
:1022A00070937A0540937B0550937C0560937D0580
:1022B00070937E0540937F05509380056093810560
:1022C000709382058093830590938405A093850580
:1022D000B09386058093870590938805A093890520
:1022E000B0938A0580938B0590938C05A0938D0500
:1022F000B0938E0580938F0590939005A0939105E0
:10230000B09392050E94A91660936F0570937005B3
:1023100080937105909372050E94A91660936B05D6
:1023200070936C0580936D0590936E050E94A916BD
:1023300060936705709368058093690590936A05BB
:1023400062EC73E08CED93E00C945B1A8CED93E0FF
:102350000E94EA1983ED95E00C94C2140DB407FEB7
:10236000FDCF08950F936034D8F54033C8F50130A0
:10237000C9F42130A9F5E42FE695E695E69580E4C9
:10238000E89FF0011124E60FF11DEE5BFD4F477051
:1023900081E090E0042E01C0880F0A94EAF7908152
:1023A00098271DC0842F869586958695E62FF0E0A8
:1023B00090E4899FE00DF11D1124EE5BFD4F477005
:1023C00081E090E0042E01C0880F0A94EAF72130E2
:1023D00019F49081982B03C0809590819823908365
:1023E0000F910895DC01673008F033C018966C93A4
:1023F0001897E62FF0E0EE0FFF1FEC5CFD4F808199
:102400009181FC01249116962C9316973196E491B4
:102410001796EC931797FC013296E4911996EC937A
:102420001997FC013396E4911A96EC931A97FC01E4
:1024300034962491FC013596849190E0F4E62F9F28
:10244000800D911D11241E969C938E931D9781E003
:10245000089580E008955F926F927F928F929F928D
:10246000AF92BF92CF92DF92EF92FF920F931F93A2
:10247000CF93DF93EC01162FF42E902E398523177E
:1024800008F4B2C04A8550E0430F511D822F90E0FE
:10249000841795070CF0A8C0D22ED31A8F8086948B
:1024A0008694869481E0881508F477C02DC0321791
:1024B00099F0E885F0E0EE0FFF1FEC5CFD4FD29E37
:1024C000400D511D11244A5F5F4F0190F081E02DB6
:1024D000E40FF51FA49001C0A12CB12C4B2D4F0D82
:1024E000A0FE03C00E2D292D04C021E0911020E094
:1024F0000E2D6C2DCE010E94B211A694B39488E0EB
:10250000B812ECCFC39401C0C62E3C2D311B2E81D6
:10251000822F90E0432F50E08417950744F664C063
:10252000E885F0E0EE0FFF1FEC5CFD4F2D853E854A
:10253000A29EC001A39E900DB29E900D11248C0D01
:102540009D1D840F911D0190F081E02DE80FF91F72
:102550005490612C462D4F0D50FE03C00E2D292D99
:1025600004C021E0911020E00E2D672DCE010E94C5
:10257000B2115694639488E06812ECCF7394472D9F
:10258000411B8E81481760F28FEFA81AB80A88E0C5
:10259000F80EA81448F5712EF2CFED85FE852E8138
:1025A00030E0CF01B9010E946E1E8D2D90E00E9497
:1025B0006E1E829F6001839FD00C929FD00C1124CD
:1025C0008E9E90018F9E300D1124269FC001279F63
:1025D000900D369F900D1124C80ED91EA12CB12C40
:1025E00086E0C80ED11CD7CFDF91CF911F910F91FC
:1025F000FF90EF90DF90CF90BF90AF909F908F9023
:102600007F906F905F900895EF920F93CF93DF9339
:10261000EC01262F6A3009F415C06D30C1F0ED8051
:102620000C814C856B850E942B124E812B85240FCB
:102630002F5F2B8730E080E490E0841B91098217A4
:1026400093072CF48C859F81890F8C871B8681E0F2
:1026500090E0DF91CF910F91EF9008952A9A229800
:102660002898209A60E08DE00E94A81760E08BE037
:102670000E94A81761E08DE00E94701761E08BE076
:102680000E9470178CB580618CBD08958CB58064F4
:102690008CBD2A98229A08950DB407FEFDCF289884
:1026A000209A2A9A22988CB58F7B8CBD0895CF935F
:1026B000DF9300D01F92CDB7DEB72B834A836983A7
:1026C0000E94461369816EBD0E94AE114A814EBDC3
:1026D0000E94AE112B812EBD0F900F900F90DF91B5
:1026E000CF910C944C13CF93DF9300D0CDB7DEB7CE
:1026F0004A8369830E94461369816EBD0E94AE11B0
:102700004A814EBD0F900F90DF91CF910C944C13E6
:102710000F931F93CF93DF93EC0140E060E20E94A0
:1027200073132FE540E261E2CE010E94571325E0CA
:1027300040E062E2CE010E9457130E944613289A9D
:102740002098809142028EBD03E412E00E94AE11F7
:10275000F80181918F018EBDF3E0023C1F07B1F7B4
:102760000E944C1342E060E2CE01DF91CF911F91B5
:102770000F910C9473130F931F93CF93DF93EC017E
:1027800040E060E20E9473132FE740E061E2CE0177
:102790000E94571327E040E062E2CE010E945713E7
:1027A0000E944613289A20981EBC0FEF13E00E9447
:1027B000AE111EBC01501109D1F70E944C1342E02A
:1027C00060E2CE01DF91CF911F910F910C947313B2
:1027D000613011F40C94BB1380E891E0E2E4F2E084
:1027E000DF019C011D9221503040E1F708952CB586
:1027F000982F93702C7F922B9CBD9DB582FB8827D0
:1028000080F99E7F982B9DBD0895CF93DF93EC01B7
:1028100060E00E94F21181E08C831D821B861C8681
:102820005F98579A61E084E00E94701761E084E04D
:102830000E94A8176AE070E080E090E00E94E51630
:102840005F9A579865E070E080E090E00E94E5169E
:102850005F98579A84E00E94F7130E942E1365E058
:1028600070E080E090E00E94E5165F9A57986AE079
:1028700070E080E090E00E94E5164FE268EACE0149
:102880000E94731344E16DE8CE010E9473130E940D
:10289000461381EA8EBD0E944C130E94461388ECB9
:1028A0008EBD0E944C134FE861E8CE010E94731365
:1028B00041EF69EDCE010E94731340E46BEDCE0150
:1028C0000E9473130E9446138FEA8EBD0E944C1320
:1028D000CE01DF91CF910C94BB131092070610929A
:1028E000060687EC93E0909305068093040608950E
:1028F000FF920F931F93CF93DF93EC01F22E798316
:1029000068838B01000F111F060F171F0A831B839B
:102910004C832B8750E0FA01ED52FF4EE491F0E03A
:10292000EE0FFF1FEF50FF4E85919491888B998B8E
:10293000FA01E154FF4E44914A8BC8010E94D21E15
:102940009F838E83009729F0A80160E070E00E94C9
:102950003821F0FE04C081E0888719860BC0F2FEA2
:1029600006C081E0888782E089871A8605C01886BC
:1029700081E0898782E08A87DF91CF911F910F9153
:10298000FF900895CF93DF93EC018E819F81009794
:1029900011F00E946D1F60E08C81DF91CF910C944B
:1029A0007017CF93DF93EC0161E08C810E94701768
:1029B00060E08C81DF91CF910C94A817CF92DF92C9
:1029C000EF92FF920F931F93CF93DF93CDB7DEB7B4
:1029D00029970FB6F894DEBF0FBECDBF8C01DC0186
:1029E00016968D919C911797892B09F499C00E9496
:1029F000BB16F801C484D584E684F7846C197D097C
:102A00008E099F09623371058105910580F3F89461
:102A1000D801828193819A838983E680F780F701C8
:102A200081917F0189871B969C911B9750960D90F1
:102A3000BC91A02DF801828991FF2EC09C91982B0A
:102A400098879C91809589238F838F818E8388E0DE
:102A50008D8358856F8149853D812E8189819A8139
:102A6000F7015C9347FD252F3A952C93262F39F0DB
:102A7000441F00C000006C93000000C0F2CF38E09B
:102A800041916C930000019761F7F801B18BA08B25
:102A900049873D832E8338C09C91982B98879C91C1
:102AA000809589238F838F818C8388E08B835885E1
:102AB0006F8149853B812C8189819A81F7015C93E3
:102AC00047FD252F00C000C02C9300C000C000C0EF
:102AD00000C000C06C930000262F3A9541F0441FBF
:102AE000000000C000C000C000C000C0E8CF38E057
:102AF000419100C06C9300C0019709F7F801B18BB8
:102B0000A08B49873B832C839A83898378940E9486
:102B1000BB16D8011C966D937D938D939C931F9744
:102B200029960FB6F894DEBF0FBECDBFDF91CF91CF
:102B30001F910F91FF90EF90DF90CF900895CF936A
:102B4000FC01A081B1816A177B0740F5C32FA581E5
:102B5000AA2361F04A9FA0011124452F3A9FC0018A
:102B60001124C92F2A9F90011124232FDB01AA0FC2
:102B7000BB1FA60FB71F868197818A0F9B1F3085C9
:102B8000DC01A30FB11D4C933185DC01A30FB11DF6
:102B9000CC933285FC01E30FF11D2083CF91089582
:102BA0000F931F93042F10E020E030E0162B282B0A
:102BB000B801C9011F910F910895FC018081918195
:102BC0000895EF92FF920F931F93CF93DF93EC0141
:102BD000E62EF42E21E030E03983288326E331E02D
:102BE0003F832E8300EE15E729E030E00887198740
:102BF0002A873B8700E21EE420E030E00C871D8737
:102C00002E873F8783E1861720F42FEF3FEF39832C
:102C1000288383E18F1520F42FEF3FEF398328833A
:102C200061E08E2D0E94701760E08F2D0E9470175A
:102C300060E08E2D0E94A8176E2D70E0FB01E1541C
:102C4000FF4EE491E88FFB01ED52FF4EE491F0E07E
:102C5000EE0FFF1FE951FF4E25913491298F3A8FD6
:102C60004F2D50E0FA01E154FF4EE491EB8FFA0151
:102C7000ED52FF4EE491F0E0EE0FFF1FE951FF4EE1
:102C8000859194918C8F9D8F4FEF5FEF6FEF7FE079
:102C90004A835B836C837D830E94A916688B798B42
:102CA0008A8B9B8BDF91CF911F910F91FF90EF90BB
:102CB0000895FC01448755876687778708951F929A
:102CC0000F920FB60F9211242F933F938F939F93E0
:102CD000AF93BF938091130690911406A0911506AF
:102CE000B091160630911B06232F2D5F2D3720F44F
:102CF0000196A11DB11D05C0232F2A570296A11DC3
:102D0000B11D20931B068093130690931406A09385
:102D10001506B09316068091170690911806A0919B
:102D20001906B0911A060196A11DB11D80931706D0
:102D300090931806A0931906B0931A06BF91AF910D
:102D40009F918F913F912F910F900FBE0F901F90E9
:102D500018950F931F938FB7F89400911306109155
:102D6000140620911506309116068FBFB801C901CF
:102D70001F910F9108950F931F939FB7F89400919F
:102D80001706109118062091190630911A0686B57B
:102D9000A89B06C08F3F21F00F5F1F4F2F4F3F4F63
:102DA0009FBF322F212F102F0027080F111D211D2B
:102DB000311D42E0000F111F221F331F4A95D1F72A
:102DC000B801C9011F910F910895CF92DF92EF9240
:102DD000FF92CF93DF936B017C010E94BB16EB0146
:102DE0000EC00E94BB166C1B7D0B683E734038F012
:102DF00081E0C81AD108E108F108C851DC4FC114BC
:102E0000D104E104F10469F7DF91CF91FF90EF90D5
:102E1000DF90CF900895789484B5826084BD84B5A6
:102E2000816084BD85B5826085BD85B5816085BDC5
:102E3000EEE6F0E0808181608083E1E8F0E01082DE
:102E4000808182608083808181608083E0E8F0E01F
:102E5000808181608083E1EBF0E080818460808309
:102E6000E0EBF0E0808181608083EAE7F0E0808140
:102E700084608083808182608083808181608083A0
:102E80008081806880831092C1000895833069F04A
:102E900028F48130A1F0823011F514C08630B1F0F1
:102EA0008730C1F08430D9F404C0809180008F77DE
:102EB00003C0809180008F7D80938000089584B549
:102EC0008F7702C084B58F7D84BD08958091B00056
:102ED0008F7703C08091B0008F7D8093B0000895FC
:102EE000CF93DF9390E0FC01E154FF4E4491FC014D
:102EF000ED52FF4E8491882341F190E0880F991F95
:102F0000FC01E550FF4E25913491D9018F509F4E21
:102F1000FC0185919491C82FD92F9FB7F8948C917B
:102F2000611106C0409584238C938881842308C056
:102F3000623041F4242F209582238C938881842B46
:102F4000888302C0842B8C939FBFDF91CF9108951B
:102F50000F931F93CF93DF931F92CDB7DEB7282F28
:102F600030E0F901E555FF4E8491F901E154FF4E3F
:102F70001491F901ED52FF4E04910023D1F0882302
:102F800021F069830E9446176981E02FF0E0EE0F7F
:102F9000FF1FEF50FF4E85919491DC019FB7F8948D
:102FA0008C91611103C01095812301C0812B8C93FA
:102FB0009FBF0F90DF91CF911F910F910895CF92F6
:102FC000DF92EF92FF920F931F93CF93DF936C01E9
:102FD000EB017A01E60EF71E00E010E00BC06991EC
:102FE000D601ED91FC910190F081E02DC60109958B
:102FF000080F191FCE15DF0591F7C801DF91CF919A
:103000001F910F91FF90EF90DF90CF900895FC01FA
:1030100084859585FC01E05CFF4F20813181FC01B6
:10302000EE5BFF4F80819181281B390B2F73332773
:10303000C9010895FC0184859585FC01E05CFF4F82
:1030400040815181FC01EE5BFF4F208131814217AD
:10305000530741F00190F081E02DE80FF91F208126
:1030600030E002C02FEF3FEFC9010895FC018485D5
:103070009585FC01E05CFF4F40815181FC01EE5BD6
:10308000FF4F208131814217530781F0A081B18128
:10309000A80FB91F8C91208131812F5F3F4F2F7373
:1030A000332731832083282F30E002C02FEF3FEFFA
:1030B000C9010895FC0186859785FC01E05CFF4FFE
:1030C000DC01AE5BBF4F408151812D913C91119746
:1030D00042175307C1F70895CF93DF93FC0186850C
:1030E0009785DC01A05CBF4F2D913C9111972F5F1C
:1030F0003F4F2F733327EC01CE5BDF4F488159815F
:1031000024173507D9F30D90BC91A02DA80FB91F36
:103110006C93A685B785A05CBF4F11963C932E9308
:10312000A689B7892C9181E090E0058C02C0880FB8
:10313000991F0A94E2F7282B2C9381E090E0DF910D
:10314000CF91089508951F920F920FB60F921124F8
:103150002F933F934F938F939F93EF93FF934091C0
:10316000C6008091BF069091C00601968F73992783
:103170002091C1063091C2068217930759F0E09161
:10318000BF06F091C006E158F94F40839093C00606
:103190008093BF06FF91EF919F918F914F913F9147
:1031A0002F910F900FBE0F901F9018958CE196E015
:1031B0000E940718892B11F00C94A21808951F92F1
:1031C0000F920FB60F9211242F933F938F939F93DB
:1031D000EF93FF9320917B0630917C0680917D06D2
:1031E00090917E062817390731F48091C1008F7DB8
:1031F0008093C10014C0E0917D06F0917E06E55CED
:10320000F94F208180917D0690917E0601968F7303
:10321000992790937E0680937D062093C600FF91A8
:10322000EF919F918F913F912F910F900FBE0F9033
:103230001F901895CF92DF92EF92FF92CF93DF937A
:10324000EC016A017B01411581EE580761057105AA
:10325000F9F0EC89FD8981E090E00E8C02C0880FC6
:10326000991F0A94E2F7808360E079E08DE390E0B3
:10327000A70196010E94821E21503109410951097E
:103280005695479537952795211580E1380798F091
:10329000EC89FD89108260E874E88EE190E0A70176
:1032A00096010E94821E215031094109510956950B
:1032B000479537952795E889F9893083EA89FB890D
:1032C0002083EE89FF89408181E090E09C010A8C97
:1032D00002C0220F331F0A94E2F7422B4083EE898B
:1032E000FF8940819C010B8C02C0220F331F0A947E
:1032F000E2F7422B4083EE89FF8940819C010C8CD0
:1033000002C0220F331F0A94E2F7422B4083EE895A
:10331000FF8920810D8C02C0880F991F0A94E2F763
:10332000809582238083DF91CF91FF90EF90DF9093
:10333000CF90089510921F0610921E0688EE93E01B
:10334000A0E0B0E08093200690932106A09322068F
:10335000B09323068FEC93E090931D0680931C0698
:103360008FE796E090932906809328068BE396E0FA
:1033700090932B0680932A0685EC90E090932D067F
:1033800080932C0684EC90E090932F0680932E0679
:1033900080EC90E0909331068093300681EC90E0D1
:1033A000909333068093320686EC90E09093350636
:1033B0008093340684E08093360683E0809337065A
:1033C00087E08093380685E08093390681E080931A
:1033D0003A060895FC01808191810C946D1FCF9372
:1033E000DF93EC0188819981009711F00E946D1F95
:1033F000198218821D821C821B821A82DF91CF9152
:1034000008950F931F93CF93DF93EC018B016F5FB0
:103410007F4F888199810E946720009731F09983BE
:1034200088831B830A8381E001C080E0DF91CF9114
:103430001F910F910895CF93DF93EC0188819981BB
:10344000892B31F08A819B818617970708F00CC081
:10345000CE010E94011A882349F08C819D81892B1D
:1034600019F4E881F981108281E001C080E0DF91E8
:10347000CF910895EF92FF920F931F93CF93DF9315
:10348000EC017B018A01BA010E941B1A811104C060
:10349000CE010E94EF1907C01D830C83B7018881FC
:1034A00099810E943F21CE01DF91CF911F910F9111
:1034B000FF90EF900895DC0111961C921E921396D6
:1034C0001C921E92129715961C921E921497169695
:1034D0001C926115710559F0DB010D900020E9F790
:1034E000AD0141505109461B570B0C943A1A0895EF
:1034F0000F931F93CF93DF9300D000D0CDB7DEB7EB
:103500009B01AC01611571058105910579F0698315
:103510003A834B835C830E94592029813A814B81F5
:103520005C810E94A41E8B019C0103C000E010E09E
:103530009801B801C9010F900F900F900F90DF9183
:10354000CF911F910F910895CF92DF92EF92FF924A
:103550006B017C01621773078407950764F4CA0145
:10356000B9016C197D098E099F090E94781AC60E4F
:10357000D71EE81EF91EB601C701FF90EF90DF903D
:10358000CF9008950E940B170E94BA0FC6EDD8E1A4
:103590000E94340A2097E1F30E94D618F9CF0F93C6
:1035A0001F93CF93DF93EC010E94A9166887798758
:1035B0008A879B87E881F9810084F185E02DCE011F
:1035C00009959C0197FF15C00E94A91608851985C9
:1035D0002A853B85601B710B820B930B0C811D812F
:1035E0002E813F81601771078207930718F32FEF31
:1035F0003FEFC901DF91CF911F910F910895CF93B4
:10360000DF93EC01CE010E94CF1A9C0197FD0EC002
:103610008D32910559F0C0970A9740F0E881F98101
:103620000680F781E02DCE010995ECCFC901DF912D
:10363000CF910895CF92DF92FF920F931F93CF9374
:10364000DF9300D000D0CDB7DEB76C01062F0E940B
:10365000FF1AFC0120E030E0A90197FD47C0F12CE2
:10366000112707FD1095E017F107E9F0ED32F1059C
:10367000C1F0CF01C0970A97B0F4AAE0B0E00E9471
:10368000631E9B01AC01CF01AA2797FDA095BA2F1D
:10369000280F391F4A1F5B1F205331094109510967
:1036A00002C0FF24F394D601ED91FC910680F781CE
:1036B000E02DC60129833A834B835C830995C601BB
:1036C0000E94CF1AFC01C09729813A814B815C810D
:1036D0000A9748F2E017F10731F2FF2039F05095D0
:1036E0004095309521953F4F4F4F5F4FB901CA012B
:1036F0000F900F900F900F90DF91CF911F910F912E
:10370000FF90DF90CF90089561E00C941A1B505801
:10371000BB27AA270ED0DCC1A5D130F0AAD120F05A
:1037200031F49F3F11F41EF49AC10EF4E095E7FBCB
:1037300067C1E92FEFD180F3BA17620773078407D7
:10374000950718F071F49EF51EC20EF4E0950B2E4D
:10375000BA2FA02D0B01B90190010C01CA01A001E3
:103760001124FF27591B99F0593F50F4503E68F13E
:103770001A16F040A22F232F342F4427585FF3CF7F
:10378000469537952795A795F0405395C9F77EF450
:103790001F16BA0B620B730B840BBAF09150A1F099
:1037A000FF0FBB1F661F771F881FC2F70EC0BA0F1F
:1037B000621F731F841F48F4879577956795B795A7
:1037C000F7959E3F08F0B3CF9395880F08F099279F
:1037D000EE0F979587950895EFD008F481E008954E
:1037E00050D1E39586C10CD073C143D140F03AD19A
:1037F00030F021F45F3F19F003C15111C5C12FC151
:1038000089D198F39923C9F35523B1F3951B550B2F
:10381000BB27AA2762177307840738F09F5F5F4FA3
:10382000220F331F441FAA1FA9F333D00E2E3AF0E4
:10383000E0E830D091505040E695001CCAF729D0FE
:10384000FE2F27D0660F771F881FBB1F261737074D
:103850004807AB07B0E809F0BB0B802DBF01FF277D
:1038600093585F4F2AF09E3F510568F0C9C08CC144
:103870005F3FECF3983EDCF3869577956795B795B7
:10388000F7959F5FC9F7880F911D9695879597F9D2
:103890000895E1E0660F771F881FBB1F621773074B
:1038A0008407BA0720F0621B730B840BBA0BEE1F60
:1038B00088F7E095089504D06894B11165C1089522
:1038C00031D188F09F5790F0B92F9927B751A0F0C8
:1038D000D1F0660F771F881F991F1AF0BA95C9F7A4
:1038E00012C0B13081F04FD1B1E008954CC1672FC3
:1038F000782F8827B85F39F0B93FCCF38695779554
:103900006795B395D9F73EF490958095709561953C
:103910007F4F8F4F9F4F0895E89409C097FB3EF467
:1039200090958095709561957F4F8F4F9F4F99230C
:10393000A9F0F92F96E9BB279395F695879577958A
:103940006795B795F111F8CFFAF4BB0F11F460FF4A
:103950001BC06F5F7F4F8F4F9F4F16C0882311F0A2
:1039600096E911C0772321F09EE8872F762F05C0B6
:10397000662371F096E8862F70E060E02AF09A9551
:10398000660F771F881FDAF7880F9695879597F946
:103990000895E2D080F09F3740F491110EF0F4C00A
:1039A00060E070E080E89FEB089526F41B16611D2F
:1039B000711D811D2BC045C0990F0008550FAA0B22
:1039C000E0E8FEEF16161706E807F907C0F0121632
:1039D0001306E407F50798F0621B730B840B950B35
:1039E00039F40A2661F0232B242B252B21F408958A
:1039F0000A2609F4A140A6958FEF811D811D089527
:103A000097F99F6780E870E060E00895882371F47B
:103A1000772321F09850872B762F07C0662311F467
:103A200099270DC09051862B70E060E02AF09A959E
:103A3000660F771F881FDAF7880F9695879597F995
:103A400008959F3F31F0915020F4879577956795C1
:103A5000B795880F911D9695879597F908959FEFD3
:103A600080EC089500240A94161617061806090615
:103A7000089500240A9412161306140605060895E4
:103A8000EECF50D0E8F3E894E0E0BB279F57F0F08A
:103A90002AED3FE049EC06C0EE0FBB0F661F771F13
:103AA000881F28F0B23A62077307840728F0B25AD9
:103AB000620B730B840BE3959A9572F7803830F4A0
:103AC0009A95BB0F661F771F881FD2F79048BBCF10
:103AD000092E0394000C11F4882352F0BB0F40F41C
:103AE000BF2B11F460FF04C06F5F7F4F8F4F9F4F5C
:103AF0000895EF93E0FF06C0A2EA2AED3FE049EC0B
:103B00005FEB17DEE5DF0F90039401FC9058E8E6C9
:103B1000F0E0A3C057FD9058440F551F59F05F3F88
:103B200071F04795880F97FB991F61F09F3F79F0DF
:103B300087950895121613061406551FF2CF469561
:103B4000F1DF08C0161617061806991FF1CF8695E3
:103B50007105610508940895E5DFA0F0BEE7B91787
:103B600088F4BB279F3860F41616B11D672F782F95
:103B70008827985FF7CF869577956795B11D9395C0
:103B80009639C8F30895E894BB2766277727CB01B9
:103B900097F908950BD09CCF65DF28F06ADF18F005
:103BA000952309F02DCF5BCF1124EECFB3DFA0F327
:103BB000959FD1F3950F50E0551F629FF001729FC2
:103BC000BB27F00DB11D639FAA27F00DB11DAA1FE1
:103BD000649F6627B00DA11D661F829F2227B00D2E
:103BE000A11D621F739FB00DA11D621F839FA00DB9
:103BF000611D221F749F3327A00D611D231F849F09
:103C0000600D211D822F762F6A2F11249F5750405F
:103C10008AF0E1F088234AF0EE0FFF1FBB1F661FFA
:103C2000771F881F91505040A9F79E3F510570F0B3
:103C3000E7CEAACF5F3FECF3983EDCF3869577950D
:103C40006795B795F795E7959F5FC1F7FE2B880FAE
:103C5000911D9695879597F908959F938F937F93DC
:103C60006F93FF93EF939B01AC0194DFEF91FF9172
:103C700005D02F913F914F915F918CCFDF93CF93E0
:103C80001F930F93FF92EF92DF927B018C01689458
:103C900005C0DA2EEF018ADFFE01E894A591259197
:103CA000359145915591AEF3EF0143DDFE0197014A
:103CB000A801DA9479F7DF90EF90FF900F911F91B0
:103CC000CF91DF9108950E94C61EA59F900DB49FCD
:103CD000900DA49F800D911D11240895AA1BBB1B5C
:103CE00051E107C0AA1FBB1FA617B70710F0A61BFC
:103CF000B70B881F991F5A95A9F780959095BC011D
:103D0000CD010895A1E21A2EAA1BBB1BFD010DC017
:103D1000AA1FBB1FEE1FFF1FA217B307E407F5077B
:103D200020F0A21BB30BE40BF50B661F771F881F57
:103D3000991F1A9469F760957095809590959B01ED
:103D4000AC01BD01CF010895052E97FB16F4009438
:103D500007D057FD0DD00E94821E07FC09D07EF4CB
:103D600090958095709561957F4F8F4F9F4F0895E7
:103D700050954095309521953F4F4F4F5F4F089597
:103D8000EE0FFF1F0590F491E02D0994A29FB00162
:103D9000B39FC001A39F01D0B29F700D811D11245C
:103DA000911D08950F931F93CF93DF938230910558
:103DB00010F482E090E0E091C506F091C60620E0A4
:103DC00030E0C0E0D0E023C040815181481759075E
:103DD000A8F04817590761F482819381209719F060
:103DE0009B838A832EC09093C6068093C50629C004
:103DF0002115310529F04217530710F0A90102C01F
:103E0000BE01DF0102811381EF019A01F8013097B1
:103E1000D9F62115310509F1281B390B243031055C
:103E200090F412968D919C9113976115710521F074
:103E3000FB019383828304C09093C6068093C506DA
:103E4000FD01329644C0FD01E20FF31F819391936F
:103E5000225031092D933C933AC02091C3063091F2
:103E6000C406232B41F420910201309103013093C9
:103E7000C4062093C3062091000130910101211551
:103E8000310541F42DB73EB7409104015091050131
:103E9000241B350BE091C306F091C406E217F3072B
:103EA000A0F42E1B3F0B2817390778F0AC014E5FAA
:103EB0005F4F2417350748F04E0F5F1F5093C4061D
:103EC0004093C3068193919302C0E0E0F0E0CF01FC
:103ED000DF91CF911F910F910895EF92FF920F9371
:103EE0001F93CF93DF93009709F48EC0DC011297E4
:103EF00013961C921E921297E090C506F090C6068B
:103F0000E114F10489F42D913C911197280F391F88
:103F10008091C3069091C4068217930789F5B093E8
:103F2000C406A093C30670C0E70120E030E001C0E2
:103F3000EA01CA17DB0738F44A815B819E0141150B
:103F40005105B1F722C0AC0142505109FA01D383A7
:103F5000C28300811181BC01600F711F6C177D0746
:103F600061F468817981600F711F6E5F7F4F71838B
:103F700060836A817B81738362832115310529F413
:103F8000B093C606A093C5063FC0F901B383A283D0
:103F9000E90149915991C40FD51FAC17BD0771F4C0
:103FA000DC019E918E91840F951F029691838083F0
:103FB00012968D919C91139793838283A0E0B0E039
:103FC00002C0D7017C01F701828193810097C9F774
:103FD000C701029620813181820F931F2091C30671
:103FE0003091C4062817390779F4109729F41092F4
:103FF000C6061092C50604C013961C921E92129714
:10400000F092C406E092C306CDB7DEB7E6E00C94AA
:1040100076218F929F92AF92BF92CF92DF92EF92D2
:10402000FF92CF93DF93EC01688179818A819B8134
:10403000611571058105910521F464E279ED8BE547
:1040400097E02DE133EF41E050E00E94A41E4901CA
:104050005A019B01AC01A7EAB1E40E94631E6B0107
:104060007C01ACEEB4EFA50194010E944921C60E7B
:10407000D71EE81EF91EF7FE06C081E0C81AD10857
:10408000E10880E8F80AC882D982EA82FB82E894D3
:10409000F7F8B601C701DF91CF91FF90EF90DF9065
:1040A000CF90BF90AF909F908F9008950E9409206D
:1040B000089586E091E00E9409200895609306012A
:1040C0007093070180930801909309010895A0E07F
:1040D000B0E0EDE6F0E20C945421EC01009729F4F5
:1040E000CB010E94D21EEC01B4C0DC01A60FB71FA9
:1040F000FC013297AE17BF0718F4C0E0D0E0A9C0AA
:104100000081118106171707B0F00530110508F47A
:10411000A0C0C80104978617970708F49AC00250F8
:104120001109061B170B0D931D9371836083CD013D
:104130000E946D1F8EC06B01C01AD10A7C01E00E77
:10414000F11EE091C506F091C60620E030E080E067
:1041500090E048C0EE15FF05D1F5808091805401B4
:1041600042E0A40EB11CAC14BD0488F17401EC183B
:10417000FD08670122E0C20ED11C9E0122503109C8
:1041800045E0C416D10478F04281538113965C93C4
:104190004E9312971196FC92EE92F901718360830F
:1041A0003A2F2B2F09C00E5F1F4F080D191DD90183
:1041B0000D931C9332812381009721F0FC013283FF
:1041C000238347C03093C5062093C60642C0808132
:1041D00091812817390708F49C0152814381CF014E
:1041E000E52FF42F309709F0B5CF8091C306909159
:1041F000C4068E159F05F1F426173707D8F4809171
:10420000000190910101009741F48DB79EB7209174
:10421000040130910501821B930BA817B90708F020
:104220006CCFB093C406A093C306FE01329771838E
:1042300060830FC0CB010E94D21E7C01009709F45D
:104240005CCFA801BE010E942F21CE010E946D1FEC
:10425000E701CE01CDB7DEB7ECE00C947021FB0195
:10426000DC0102C001900D9241505040D8F70895F2
:10427000DC0101C06D9341505040E0F70895FB010F
:10428000DC0101900D920020E1F70895B7FF0C9436
:10429000631E0E94631E821B930B08952F923F9210
:1042A0004F925F926F927F928F929F92AF92BF9246
:1042B000CF92DF92EF92FF920F931F93CF93DF93F2
:1042C000CDB7DEB7CA1BDB0B0FB6F894DEBF0FBE4F
:1042D000CDBF09942A88398848885F846E847D849C
:1042E0008C849B84AA84B984C884DF80EE80FD809E
:1042F0000C811B81AA81B981CE0FD11D0FB6F89414
:10430000DEBF0FBECDBFED01089511E1CCE0D1E1DC
:1043100004C0FE010E94C21E2296CE30D107C9F70A
:04432000F894FFCF3F
:104324000000C70620000100000001000100010098
:104334000100010000000000000000000000000077
:104344000000000000000000000000000000000069
:104354000000000000000000000000000000000059
:1043640000000000D0077A007A007A007A007A0010
:104374000000000000000000000000000000000039
:104384000000000000000000000000000000000029
:104394000000000000000000000000000000000019
:1043A4007A007A007A007A007A00000000000000A7
:1043B40000000000000000000000000000000000F9
:1043C40000000000000000000000000000000000E9
:1043D40000000000000000000000000001000200D6
:1043E40003000400000000000000000000000000C2
:1043F40000000000000000000000000000000000B9
:1044040000000000000000000000000000000000A8
:10441400000000002C01020001000400000005005F
:104424000000000000000000000000000000000088
:104434000000000000000000000000000000000078
:104444000000000000000000000000000000000068
:1044540000004040860087058D0B830CA10FFF0FE1
:1044640065100000000000000000000000000000D3
:1044740000000000000000000000E0F8FCFEFFFF68
:10448400FFFFFFFFFF0F0707060600808000000004
:104494000000000000000000000000000000000018
:1044A4000000000000000000000000000000000008
:1044B4000000000080808080808081070F3F3FFFE4
:1044C400FFFFFFFFFFFFFEFEFCFCFCFEFFFFFFFC07
:1044D400F8E0000000000000000000000000000000
:1044E40000000000000000000000000000000000C8
:1044F40000FCFEFFFFFFFFFFFFF1E0E0E0E0E0F083
:10450400FDFFFFFFFFFFFFFFFFFFFFFFFFFFFFFFB9
:10451400FFFF000000000000000000000000000099
:104524000000000000000000000000000000000087
:1045340000FFFFFFFFFFFFFFFFFFFFFFFFFFFFFF86
:10454400FFFFFFFFFFFFFFFFFFFFFFFFFF7F3F1F97
:10455400070100000000000000000000000000004F
:104564000000000000000000000000000000000047
:1045740000FFFFFFFFFFFFFFFFFF7F3F1F1F0F0F26
:104584000F0F0F0F0F0F07070703030100000000B1
:104594000000000000000000000000000000000017
:1045A4000000000000000000000000000000000007
:1045B40000FF7F3F1F0F0703010000000000000001
:1045C40000000000000000000000000000000000E7
:1045D40000000000000000000000000000000000D7
:1045E400000000000000000413DF17000000006C4E
:0C45F40018DF17071836181A185A18009C
:00000001FF
